:020000040000fa
:080000000002040000000000f2
:020000040000fa
:0400080024030000cd
:020000040000fa
:04000c0024030000c9
:020000040000fa
:0400100024030000c5
:020000040000fa
:0400140024030000c1
:020000040000fa
:0400180024030000bd
:020000040000fa
:04001c0024030000b9
:020000040000fa
:0400200024030000b5
:020000040000fa
:0400240024030000b1
:020000040000fa
:0400280024030000ad
:020000040000fa
:04002c0024030000a9
:020000040000fa
:0400300024030000a5
:020000040000fa
:04003400ee020000d8
:020000040000fa
:04003800240300009d
:020000040000fa
:04003c002403000099
:020000040000fa
:040040002403000095
:020000040000fa
:040044002403000091
:020000040000fa
:04004800240300008d
:020000040000fa
:04004c002403000089
:020000040000fa
:040050002403000085
:020000040000fa
:040054002403000081
:020000040000fa
:04005800240300007d
:020000040000fa
:04005c002403000079
:020000040000fa
:040060002403000075
:020000040000fa
:040064002403000071
:020000040000fa
:04006800240300006d
:020000040000fa
:04006c002403000069
:020000040000fa
:040070002403000065
:020000040000fa
:04007400c8020000be
:020000040000fa
:04007800240300005d
:020000040000fa
:04007c002403000059
:020000040000fa
:040080002403000055
:020000040000fa
:040084002403000051
:020000040000fa
:04008800240300004d
:020000040000fa
:04008c002403000049
:020000040000fa
:040090002403000045
:020000040000fa
:040094002403000041
:020000040000fa
:04009800240300003d
:020000040000fa
:04009c002403000039
:020000040000fa
:0400a0002403000035
:020000040000fa
:0400a4002403000031
:020000040000fa
:0400a800240300002d
:020000040000fa
:0400ac002403000029
:020000040000fa
:0400b0002403000025
:020000040000fa
:0400b4002403000021
:020000040000fa
:0400b800240300001d
:020000040000fa
:0400bc002403000019
:020000040000fa
:0400c0002403000015
:020000040000fa
:0400c4002403000011
:020000040000fa
:0400c800240300000d
:020000040000fa
:0400cc002403000009
:020000040000fa
:0400d0002403000005
:020000040000fa
:0400d4002403000001
:020000040000fa
:0400d80024030000fd
:020000040000fa
:0400dc0024030000f9
:020000040000fa
:0400e00024030000f5
:020000040000fa
:0400e40024030000f1
:020000040000fa
:0400e80024030000ed
:020000040000fa
:0400ec0024030000e9
:020000040000fa
:0400f00024030000e5
:020000040000fa
:0400f40024030000e1
:020000040000fa
:0400f80024030000dd
:020000040000fa
:0400fc0024030000d9
:020000040000fa
:0401000024030000d4
:020000040000fa
:0401040024030000d0
:020000040000fa
:0401080024030000cc
:020000040000fa
:04010c0024030000c8
:020000040000fa
:0401100024030000c4
:020000040000fa
:0401140024030000c0
:020000040000fa
:0401180024030000bc
:020000040000fa
:04011c0024030000b8
:020000040000fa
:0401200024030000b4
:020000040000fa
:0401240024030000b0
:020000040000fa
:0401280024030000ac
:020000040000fa
:04012c0024030000a8
:020000040000fa
:0401300024030000a4
:020000040000fa
:0401340024030000a0
:020000040000fa
:04013800240300009c
:020000040000fa
:04013c002403000098
:020000040000fa
:040140002403000094
:020000040000fa
:040144002403000090
:020000040000fa
:04014800240300008c
:020000040000fa
:04014c002403000088
:020000040000fa
:040150002403000084
:020000040000fa
:040154002403000080
:020000040000fa
:04015800240300007c
:020000040000fa
:04015c002403000078
:020000040000fa
:040160002403000074
:020000040000fa
:040164002403000070
:020000040000fa
:04016800240300006c
:020000040000fa
:0402080024030000cb
:020000040000fa
:04020c0024030000c7
:020000040000fa
:0402100024030000c3
:020000040000fa
:0402140024030000bf
:020000040000fa
:0402180024030000bb
:020000040000fa
:04021c0024030000b7
:020000040000fa
:0402200024030000b3
:020000040000fa
:0402240024030000af
:020000040000fa
:0402280024030000ab
:020000040000fa
:04022c0024030000a7
:020000040000fa
:0402300024030000a3
:020000040000fa
:04023400240300009f
:020000040000fa
:04023800240300009b
:020000040000fa
:04023c002403000097
:020000040000fa
:040240002403000093
:020000040000fa
:04024400240300008f
:020000040000fa
:04024800240300008b
:020000040000fa
:04024c002403000087
:020000040000fa
:040250002403000083
:020000040000fa
:04025400240300007f
:020000040000fa
:04025800240300007b
:020000040000fa
:04025c002403000077
:020000040000fa
:040260002403000073
:020000040000fa
:04026400240300006f
:020000040000fa
:04026800240300006b
:020000040000fa
:04026c002403000067
:020000040000fa
:040270002403000063
:020000040000fa
:04027400240300005f
:020000040000fa
:04027800240300005b
:020000040000fa
:04027c002403000057
:020000040000fa
:040280002403000053
:020000040000fa
:04028400240300004f
:020000040000fa
:04028800240300004b
:020000040000fa
:04028c002403000047
:020000040000fa
:040290002403000043
:020000040000fa
:04029400240300003f
:020000040000fa
:04029800240300003b
:020000040000fa
:04029c002403000037
:020000040000fa
:0402a0002403000033
:020000040000fa
:0402a400240300002f
:020000040000fa
:0402a800240300002b
:020000040000fa
:0402ac002403000027
:020000040000fa
:0402b0002403000023
:020000040000fa
:0402b400240300001f
:020000040000fa
:0402b800240300001b
:020000040000fa
:0402bc002403000017
:020000040000fa
:0402c0002403000013
:020000040000fa
:0402c400240300000f
:020000040000fa
:0402c800240300000b
:020000040000fa
:0402cc002403000007
:020000040000fa
:0402d0002403000003
:020000040000fa
:0402d40024030000ff
:020000040000fa
:0402d80024030000fb
:020000040000fa
:0402dc0024030000f7
:020000040000fa
:0402e00024030000f3
:020000040000fa
:0402e40024030000ef
:020000040000fa
:0402e80024030000eb
:020000040000fa
:0402ec0024030000e7
:020000040000fa
:0402f00024030000e3
:020000040000fa
:0402f40024030000df
:020000040000fa
:0402f80024030000db
:020000040000fa
:0402fc0024030000d7
:020000040000fa
:0403000024030000d2
:020000040000fa
:0403040024030000ce
:020000040000fa
:0403080024030000ca
:020000040000fa
:04030c0024030000c6
:020000040000fa
:0403100024030000c2
:020000040000fa
:0403140024030000be
:020000040000fa
:0403180024030000ba
:020000040000fa
:04031c0024030000b6
:020000040000fa
:0403200024030000b2
:020000040000fa
:0403240024030000ae
:020000040000fa
:0403280024030000aa
:020000040000fa
:04032c0024030000a6
:020000040000fa
:0403300024030000a2
:020000040000fa
:04033400240300009e
:020000040000fa
:04033800240300009a
:020000040000fa
:04033c002403000096
:020000040000fa
:040340002403000092
:020000040000fa
:04034400240300008e
:020000040000fa
:04034800240300008a
:020000040000fa
:04034c002403000086
:020000040000fa
:040350002403000082
:020000040000fa
:04035400240300007e
:020000040000fa
:04035800240300007a
:020000040000fa
:04035c002403000076
:020000040000fa
:040360002403000072
:020000040000fa
:04036400240300006e
:020000040000fa
:04036800240300006a
:020000040000fa
:100400002f8020000eff20000e0188000000000059
:10041000000020000000e000020032000001200087
:100420002002880014000700890007000000e00097
:1004300003003a004036200001002000020037008f
:100440000000200001002000810f70000100320038
:1004500014000700000020000000e000020032004d
:1004600000000200000000002a030200000000005b
:100470000040da000000fe004440a9000000200017
:100480000000e0000300320000002000a00188000e
:100490004440a800000006008a1f78008b1f7800e7
:1004a0000000060091018800800478000000eb0045
:1004b0001a003700e284440032a0b4009905ba0063
:1004c000e284440032a0b4009906ba00e2844400f9
:1004d00032a0b4000006eb00476fde00fd07b2005b
:1004e000636ce10003003a00ebff07000000eb0043
:1004f0000a003700606ce10004003a00005deb0088
:100500008b05e900fdff3e00040037006168e10053
:10051000010032000086eb000b00070019c7ba008b
:100520001905ba000e04e00003003a000a00e000da
:10053000e0ff3a0000000600fe07b2009e018800be
:100540008a047800f5ff3700395dba008b05e900b1
:100550000c003200295dba008b05e900080032006a
:100560000c00e00003003a00e284440032a0b40032
:10057000f5ff370019ddba008b05e900faff3a00f4
:100580008904e800e184440032a0b40000000600c1
:10059000801f78000000fa008660a90050168000d5
:1005a000620060000000e00006003200c402a80003
:1005b000cc42a9000021ef0010002000004088007c
:1005c00003003700c402a900cc42a9000028ef00b4
:1005d0000080fa004f00780000400600801f78007d
:1005e0000000fa008460a90000408000e10f500084
:1005f00008003a00c402a900cc42a80060e421002f
:10060000100888000021ef00200020000040880032
:100610000a00370000408000e20f500007003a0057
:10062000c402a800cc42a900c0c82300100888005a
:100630000021ef0010002000004088000080fa0038
:100640004f007800004006000040da000000fe0085
:0406500000000500a1
:020000040000fa
:100654000000fa00e224a900e004a900e244a90091
:10066400c002a900c822a800c842a90005e1a80048
:100674000421a90021058000f0ff2800008060000b
:1006840000e0a000200588009460a800c0c82300f2
:10069400100888008460a90062a0a8006ea0a900c8
:1006a40061058000f0ff28008080600000002600c3
:1006b40001007000600588009660a8008660a900ab
:0406c400ffff3700fd
:020000040000fa
:1006c8000008000002000000020000000100000015
:0406d800000000001e
:020000040000fa
:0200000401f009
:04000c00fdff0000f4
:00000001FF
