:020000040000fa
:080000000002040000000000f2
:020000040000fa
:04000800760300007b
:020000040000fa
:04000c007603000077
:020000040000fa
:040010007603000073
:020000040000fa
:04001400760300006f
:020000040000fa
:04001800760300006b
:020000040000fa
:04001c007603000067
:020000040000fa
:040020007603000063
:020000040000fa
:04002400760300005f
:020000040000fa
:04002800760300005b
:020000040000fa
:04002c007603000057
:020000040000fa
:0400300002030000c7
:020000040000fa
:04003400cc020000fa
:020000040000fa
:04003800760300004b
:020000040000fa
:04003c007603000047
:020000040000fa
:040040001c0300009d
:020000040000fa
:04004400760300003f
:020000040000fa
:04004800760300003b
:020000040000fa
:04004c007603000037
:020000040000fa
:040050007603000033
:020000040000fa
:04005400760300002f
:020000040000fa
:04005800760300002b
:020000040000fa
:04005c007603000027
:020000040000fa
:040060007603000023
:020000040000fa
:04006400760300001f
:020000040000fa
:04006800760300001b
:020000040000fa
:04006c007603000017
:020000040000fa
:040070007603000013
:020000040000fa
:04007400360300004f
:020000040000fa
:04007800760300000b
:020000040000fa
:04007c007603000007
:020000040000fa
:040080007603000003
:020000040000fa
:0400840076030000ff
:020000040000fa
:0400880076030000fb
:020000040000fa
:04008c0076030000f7
:020000040000fa
:0400900076030000f3
:020000040000fa
:0400940076030000ef
:020000040000fa
:0400980076030000eb
:020000040000fa
:04009c0076030000e7
:020000040000fa
:0400a00076030000e3
:020000040000fa
:0400a40076030000df
:020000040000fa
:0400a80076030000db
:020000040000fa
:0400ac0076030000d7
:020000040000fa
:0400b00076030000d3
:020000040000fa
:0400b40076030000cf
:020000040000fa
:0400b80076030000cb
:020000040000fa
:0400bc0076030000c7
:020000040000fa
:0400c00076030000c3
:020000040000fa
:0400c40076030000bf
:020000040000fa
:0400c80076030000bb
:020000040000fa
:0400cc0076030000b7
:020000040000fa
:0400d00076030000b3
:020000040000fa
:0400d40076030000af
:020000040000fa
:0400d80076030000ab
:020000040000fa
:0400dc0076030000a7
:020000040000fa
:0400e00076030000a3
:020000040000fa
:0400e400760300009f
:020000040000fa
:0400e800760300009b
:020000040000fa
:0400ec007603000097
:020000040000fa
:0400f0007603000093
:020000040000fa
:0400f400760300008f
:020000040000fa
:0400f800760300008b
:020000040000fa
:0400fc007603000087
:020000040000fa
:040100007603000082
:020000040000fa
:04010400760300007e
:020000040000fa
:04010800760300007a
:020000040000fa
:04010c007603000076
:020000040000fa
:040110007603000072
:020000040000fa
:04011400760300006e
:020000040000fa
:04011800760300006a
:020000040000fa
:04011c007603000066
:020000040000fa
:040120007603000062
:020000040000fa
:04012400760300005e
:020000040000fa
:04012800760300005a
:020000040000fa
:04012c007603000056
:020000040000fa
:040130007603000052
:020000040000fa
:04013400760300004e
:020000040000fa
:04013800760300004a
:020000040000fa
:04013c007603000046
:020000040000fa
:040140007603000042
:020000040000fa
:04014400760300003e
:020000040000fa
:04014800760300003a
:020000040000fa
:04014c007603000036
:020000040000fa
:040150007603000032
:020000040000fa
:04015400760300002e
:020000040000fa
:04015800760300002a
:020000040000fa
:04015c007603000026
:020000040000fa
:040160007603000022
:020000040000fa
:04016400760300001e
:020000040000fa
:04016800760300001a
:020000040000fa
:040208007603000079
:020000040000fa
:04020c007603000075
:020000040000fa
:040210007603000071
:020000040000fa
:04021400760300006d
:020000040000fa
:040218007603000069
:020000040000fa
:04021c007603000065
:020000040000fa
:040220007603000061
:020000040000fa
:04022400760300005d
:020000040000fa
:040228007603000059
:020000040000fa
:04022c007603000055
:020000040000fa
:040230007603000051
:020000040000fa
:04023400760300004d
:020000040000fa
:040238007603000049
:020000040000fa
:04023c007603000045
:020000040000fa
:040240007603000041
:020000040000fa
:04024400760300003d
:020000040000fa
:040248007603000039
:020000040000fa
:04024c007603000035
:020000040000fa
:040250007603000031
:020000040000fa
:04025400760300002d
:020000040000fa
:040258007603000029
:020000040000fa
:04025c007603000025
:020000040000fa
:040260007603000021
:020000040000fa
:04026400760300001d
:020000040000fa
:040268007603000019
:020000040000fa
:04026c007603000015
:020000040000fa
:040270007603000011
:020000040000fa
:04027400760300000d
:020000040000fa
:040278007603000009
:020000040000fa
:04027c007603000005
:020000040000fa
:040280007603000001
:020000040000fa
:0402840076030000fd
:020000040000fa
:0402880076030000f9
:020000040000fa
:04028c0076030000f5
:020000040000fa
:0402900076030000f1
:020000040000fa
:0402940076030000ed
:020000040000fa
:0402980076030000e9
:020000040000fa
:04029c0076030000e5
:020000040000fa
:0402a00076030000e1
:020000040000fa
:0402a40076030000dd
:020000040000fa
:0402a80076030000d9
:020000040000fa
:0402ac0076030000d5
:020000040000fa
:0402b00076030000d1
:020000040000fa
:0402b40076030000cd
:020000040000fa
:0402b80076030000c9
:020000040000fa
:0402bc0076030000c5
:020000040000fa
:0402c00076030000c1
:020000040000fa
:0402c40076030000bd
:020000040000fa
:0402c80076030000b9
:020000040000fa
:0402cc0076030000b5
:020000040000fa
:0402d00076030000b1
:020000040000fa
:0402d40076030000ad
:020000040000fa
:0402d80076030000a9
:020000040000fa
:0402dc0076030000a5
:020000040000fa
:0402e00076030000a1
:020000040000fa
:0402e400760300009d
:020000040000fa
:0402e8007603000099
:020000040000fa
:0402ec007603000095
:020000040000fa
:0402f0007603000091
:020000040000fa
:0402f400760300008d
:020000040000fa
:0402f8007603000089
:020000040000fa
:0402fc007603000085
:020000040000fa
:040300007603000080
:020000040000fa
:04030400760300007c
:020000040000fa
:040308007603000078
:020000040000fa
:04030c007603000074
:020000040000fa
:040310007603000070
:020000040000fa
:04031400760300006c
:020000040000fa
:040318007603000068
:020000040000fa
:04031c007603000064
:020000040000fa
:040320007603000060
:020000040000fa
:04032400760300005c
:020000040000fa
:040328007603000058
:020000040000fa
:04032c007603000054
:020000040000fa
:040330007603000050
:020000040000fa
:04033400760300004c
:020000040000fa
:040338007603000048
:020000040000fa
:04033c007603000044
:020000040000fa
:040340007603000040
:020000040000fa
:04034400760300003c
:020000040000fa
:040348007603000038
:020000040000fa
:04034c007603000034
:020000040000fa
:040350007603000030
:020000040000fa
:04035400760300002c
:020000040000fa
:040358007603000028
:020000040000fa
:04035c007603000024
:020000040000fa
:040360007603000020
:020000040000fa
:04036400760300001c
:020000040000fa
:040368007603000018
:020000040000fa
:100400004f8220000eff20000e0188000000000037
:10041000000020000000e000020032000001200087
:100420002002880014000700b20007000000e0006e
:1004300003003a00608b200001002000020037001a
:100440000000200001002000810f70000100320038
:1004500014000700000020000000e000020032004d
:1004600000000200000000001e0802000000000062
:100470000040da000000fe004440a9000000200017
:100480000000e0000300320000002000a00188000e
:100490004440a800000006008a1f78008b1f7800e7
:1004a0000000060091018800800478000000eb0045
:1004b0001a003700e284440032a0b4009905ba0063
:1004c000e284440032a0b4009906ba00e2844400f9
:1004d00032a0b4000006eb00476fde00fd07b2005b
:1004e000636ce10003003a00ebff07000000eb0043
:1004f0000a003700606ce10004003a00005deb0088
:100500008b05e900fdff3e00040037006168e10053
:10051000010032000086eb000b00070019c7ba008b
:100520001905ba000e04e00003003a000a00e000da
:10053000e0ff3a0000000600fe07b2009e018800be
:100540008a047800f5ff3700395dba008b05e900b1
:100550000c003200295dba008b05e900080032006a
:100560000c00e00003003a00e284440032a0b40032
:10057000f5ff370019ddba008b05e900faff3a00f4
:100580008904e800e184440032a0b40000000600c1
:1005900000000000000000003600f800809fbe0050
:1005a000829fbe00849fbe00869fbe000000fa00ae
:1005b0008460a9000021ef00704080000000e80086
:1005c0007040880071408000d0062000808f50006d
:1005d00005003400c402a900804e20000000010084
:1005e000cdc2a900ffff37000080fa004f03be0014
:1005f0004f02be004f01be004f00be003600f900a2
:1006000000400600801f78003400f8000000200041
:10061000a00188000000fa00404080000000e800cf
:10062000404088008440a9000080fa003400f900ae
:100630004f00780000400600801f78003400f8006a
:1006400000002000a00188000000fa005040800057
:100650000000e8005040880084c0a9000080fa0033
:100660003400f9004f007800004006003600f80022
:10067000809fbe00829fbe00849fbe00869fbe00fa
:100680000000fa008660a90007c8bf000004e0006f
:100690000e003a005116800000002100008060002a
:1006a0000000e00002003200c90007000800370027
:1006b0005116800000002200008060000000e00071
:1006c00003003200c20007000100370000000000f4
:1006d0000080fa004f03be004f02be004f01be0073
:1006e0004f00be003600f900004006000040da006e
:0806f0000000fe0000000500ff
:020000040000fa
:1006f8000000fa00c002a900e004a900c022a90075
:10070800e024a900c802a900c822a900c842a8007c
:10071800e244a800c042a900e044a900e064a8009f
:10072800c8e2a900c902a900c922a900c0c2a9003b
:10073800c982a800e384a900c9a2a800e3a4a9006b
:10074800c9c2a900e3c4a900c9e2a900e3e4a90059
:100758000080fa00000006000000fa0005e1a80089
:100768000421a90021088000000320000100700076
:100778002008880090d02300100888000021ef008e
:1007880021058000f0ff280080806000000026001e
:1007980001007000200588009460a8008460a9000a
:1007a8000080fa00000006000000fa0011e1a8002d
:1007b8001021a90081088000f0fc2f000080600053
:1007c8000040a00080088800803e20006008880063
:1007d8000621ef000080fa00000006000000fa0081
:1007e800111a8000f0ff230000806000101a8800b2
:1007f80043a3a90030c0b30044e3b700011a800046
:10080800f0f02f00808060000007200001007000d9
:10081800001a88004043a800211a8000f00f2e001b
:10082800808060000030200001007000201a8800dd
:100838004343a80051c3a8005083a8004143a8001f
:10084800011a8000f0cf2f0000806000001a880095
:100858004363a800111a800030f82f000080600060
:100868000030a000101a880041e3a8000080fa00b8
:10087800000006000000fa00a421ef00a621ef0006
:1008880000232000500d8800f0702200400d8800e1
:10089800210d8000f03f2e0000806000200d8800b0
:1008a800300d8000f001b300300d8800a6e1a900ea
:1008b800210d800080ff2f00008060006000b300e1
:1008c800200d88000080fa00000006000000fa00f1
:1008d80063c0a8006ea0a90061058000f0ff280091
:1008e800808060000000250001007000600588001d
:1008f8009660a8008660a9000080fa000000060043
:100908000000fa009021ef009221ef0060f920002a
:10091800b00c880080a92300a00c8800810c8000fe
:1009280000c0210001007000800c8800900c80003d
:10093800f001b300900c880092e1a900810c8000be
:1009480080ff2f00008060006000b300800c8800ea
:100958009440a8008440a900cde2a9000080fa00d4
:10096800000006000000fa009a21ef009c21ef0029
:1009780060f92000000d880080a92300f00c880091
:10098800d10c800000c0210001007000d00c88004c
:10099800e00c8000f001b300e00c88009ce1a900a5
:1009a800d10c800080ff2f00008060006000b30041
:1009b800d00c880094c0a80084c0a900c402a90073
:1009c8000080fa00000006000000fa000668ef0048
:1009d800cde2a9000080fa00000006000000fa003d
:1009e800cde2a800cd02a800cd22a8000080fa0020
:1009f800000006000000fa00cde2a800cce2a80042
:100a080010c0b30006e8b700cd02a900cd22a800a7
:100a18000828ef0007003700b04080006109200077
:100a28008080400040408000808f500001003d00e1
:100a3800e5ff070006c8bf000004e000f6ff3a0023
:100a48000080fa00000006000000fa00cce2a900cd
:100a580010c0b30007e8b700801a2600a00c880071
:100a6800cde2a80010c0b30006e8b700cd02a90087
:100a7800cd22a8000828ef000000000041408000b7
:100a880050092000808f5000fcff340080a923000b
:100a9800a00c88000768ef000080fa00000006003c
:100aa8000000fa00cde2a8000828ef00cd02a80057
:100ab800cd22a9000000000041408000b040800025
:100ac800808f5000fcff3500cde2a9000080fa00bd
:100ad800000006000000fa00cce2a900bfff0700f2
:100ae80000000000a04080008000780040188000ce
:100af800808f5000fbff3e00b3ff070000a82100d5
:100b080061002000890107000080fa00000006004b
:100b18000000fa00cde2a8000828ef00cd02a800e6
:100b2800cd22a8000000000041408000e040800085
:100b3800808f5000fcff3500cde2a9000080fa004c
:100b4800000006000000fa00cde2a8000828ef0027
:100b5800cd02a800cd22a80000000000e0408000df
:100b6800cf00de00008040000080d10080007800c7
:100b780040408000808f5000f8ff3c00cde2a90083
:100b88000080fa00000006000000fa00cde2a8008c
:100b98000828ef00cd02a900cd22a900000000001e
:100ba800e0408000cf00de00008040000080d100df
:100bb8008000780040408000808f5000f8ff3c00a3
:100bc800cde2a9000080fa00000006000200fa0049
:100bd800004f780070c7b3009e40780080cf500067
:100be80009003a0060312000500d88000040800064
:100bf8000000e80000408800204080000000e80075
:100c0800204088000c00370020c6b3009e407800c2
:100c180080cf500008003a00c0172000500d88000f
:100c2800004080000000e80000408800104080007c
:100c38000000e8001040880000a026008101200084
:100c48003a0107000080fa00000006000400fa00dc
:100c58000000eb00000f7800cce2a9000048280053
:100c6800e101200031010700cdc2a9000041800048
:100c780080007800e0188000808f50000400310068
:100c880070c7b300204798002e4090001d00370021
:100c9800f040800080007800e0188000808f5000cd
:100ca8000400310020c6b300204798002e40900071
:100cb80014003700005327009e007800808f5000f2
:100cc8000e003400cce2a800e0c6b300204798002c
:100cd800cdc2a90000cc2500510120001301070056
:100ce800cdc2a80000cc2500510120000f0107004b
:100cf8000000eb00000f7800dcff37001e0fe80053
:100d0800daff37000080fa00000006000000fa0051
:100d180038ff07004cff07002bff0700cde2a900b2
:100d2800c402a800c422a8000a28ef000100370066
:100d380000000000cce2a800514080001041800073
:100d4800808f5000faff3400c402a900002021005f
:100d5800a1072000f5000700c422a900c402a800ca
:100d68000a28ef0001003700000000005140800011
:100d780010418000808f5000fbff3400c402a9009e
:100d8800cde2a80000232000500d880044ff070092
:100d98000080fa00000006000000fa0069ff070062
:100da80020408000e30f50002a00340010408000eb
:100db800e30f500027003400a04080008000780036
:100dc80040188000808f500009003e0020c6b30004
:100dd8000ce8b700cdff07005aff070070c7b30043
:100de8000ce8b700c9ff070049ff07004a003700b1
:100df80070c7b3000ce8b700c4ff070051ff070035
:100e0800a04080008000780040188000808f50004b
:100e180005003e0020c6b3000ce8b700bbff070082
:100e28003bff07003c00370046ff0700a04080005a
:100e38008000780040188000808f500003003e003a
:100e480020c6b3000ce8b700b0ff07003dff07005d
:100e58003100370020408000e30f500011003400bb
:100e680010408000e40f50000e003c0070c7b30033
:100e78000ce8b700a040800080007800401880008f
:100e8800808f500003003600a0ff07003eff0700d8
:100e9800210037002bff07009cff07001cff0700fd
:100ea8001d00370020408000e40f50001a003c006d
:100eb80010408000e30f50001700340020c6b30034
:100ec8000ce8b700a040800080007800401880003f
:100ed800808f500003003e008cff07002aff0700a8
:100ee8000d00370017ff0700a04080008000780041
:100ef80040188000808f500003003e0083ff0700e9
:100f080003ff0700040037000eff07007fff0700fc
:100f18000cff0700000000000080fa000000060037
:100f28000000fa00cde2a8000828ef00cd02a900d1
:100f3800cd22a8000000000041408000b0408000a1
:100f4800808f5000fcff3500cde2a9000080fa0038
:100f5800000006000000fa00cde2a8000828ef0013
:100f6800cd02a900cd22a80000000000b0408000fa
:100f7800210320008080400040408000808f500086
:100f8800faff3c00cde2a9000080fa00000006004c
:100f98000000fa00cde2a800cd02a800cd22a800ea
:100fa8000828ef001d00370000a82100610020007c
:100fb8005e000700601680004800de0061406000a7
:100fc8000004a200614060000080fb006100600036
:100fd8004800dd0062168000f1ef2f0081006100fb
:100fe8000100700060168800601680004900de006d
:100ff800614060000004a200614060000080fb00c6
:10100800610060004900dd0062168000f1df2f00fa
:101018008100610001007000601688004040800077
:10102800f30f5000e0ff3400cde2a9000080fa0081
:10103800000006000200fa00adfd0700c6fd07002b
:10104800d9fd07002efe070046fe070009fe07002f
:101058001efe0700e1fd07000000eb00000f78000e
:1010680040a7a90000902000d10320002f0007000e
:1010780080408000e10f50000e003200e10f500068
:1010880005003900e20f50001c003200e30f500049
:1010980022003200f6ff37008efe070055fe0700db
:1010a80069fe070048fe0700100020008040880005
:1010b8001d0037000000eb00000f78000900370022
:1010c800cdc2a90000502300c1002000170007006e
:1010d800cdc2a80000a0260081012000130007004f
:1010e8001e0fe8001e007800ef0f5000f4ff3400d8
:1010f80020002000804088000b00370068fe0700b1
:1011080090fe070001ff07009ffe070039fe070059
:10111800100020008040880003003700c402a900a6
:0c112800cde2a900ffff3700d1ff370027
:020000040000fa
:10113400f03fb1000180b10006003500ee03090064
:1011440000000000403fb1000180b100fbff3d0002
:101154001000b000203fb0000200350000800900fc
:0811640000000000000006007d
:020000040000fa
:10116c00000800001200000000000000120800003f
:10117c0012000000020000000400fc000812020033
:10118c007c01e0001e54010072010800078a020075
:04119c00000000004f
:020000040000fa
:0200000401f009
:04000c00f8ff0000f9
:020000040000fa
:0200000401f009
:04001000fbff0000f2
:020000040000fa
:0200000401f009
:04001c00fdff0000e4
:00000001FF
