:020000040000fa
:080000000002040000000000f2
:020000040000fa
:040008003c030000b5
:020000040000fa
:04000c003c030000b1
:020000040000fa
:040010003c030000ad
:020000040000fa
:040014003c030000a9
:020000040000fa
:040018003c030000a5
:020000040000fa
:04001c003c030000a1
:020000040000fa
:040020003c0300009d
:020000040000fa
:040024003c03000099
:020000040000fa
:040028003c03000095
:020000040000fa
:04002c003c03000091
:020000040000fa
:04003000cc020000fe
:020000040000fa
:040034003c03000089
:020000040000fa
:040038003c03000085
:020000040000fa
:04003c003c03000081
:020000040000fa
:040040003c0300007d
:020000040000fa
:040044003c03000079
:020000040000fa
:040048003c03000075
:020000040000fa
:04004c003c03000071
:020000040000fa
:040050003c0300006d
:020000040000fa
:040054003c03000069
:020000040000fa
:040058003c03000065
:020000040000fa
:04005c003c03000061
:020000040000fa
:040060003c0300005d
:020000040000fa
:040064003c03000059
:020000040000fa
:040068003c03000055
:020000040000fa
:04006c003c03000051
:020000040000fa
:040070003c0300004d
:020000040000fa
:040074000203000083
:020000040000fa
:040078003c03000045
:020000040000fa
:04007c003c03000041
:020000040000fa
:040080003c0300003d
:020000040000fa
:040084003c03000039
:020000040000fa
:040088003c03000035
:020000040000fa
:04008c003c03000031
:020000040000fa
:040090003c0300002d
:020000040000fa
:040094003c03000029
:020000040000fa
:040098003c03000025
:020000040000fa
:04009c003c03000021
:020000040000fa
:0400a0003c0300001d
:020000040000fa
:0400a4003c03000019
:020000040000fa
:0400a8003c03000015
:020000040000fa
:0400ac003c03000011
:020000040000fa
:0400b0003c0300000d
:020000040000fa
:0400b4003c03000009
:020000040000fa
:0400b8003c03000005
:020000040000fa
:0400bc003c03000001
:020000040000fa
:0400c0003c030000fd
:020000040000fa
:0400c4003c030000f9
:020000040000fa
:0400c8003c030000f5
:020000040000fa
:0400cc003c030000f1
:020000040000fa
:0400d0003c030000ed
:020000040000fa
:0400d4003c030000e9
:020000040000fa
:0400d8003c030000e5
:020000040000fa
:0400dc003c030000e1
:020000040000fa
:0400e0003c030000dd
:020000040000fa
:0400e4003c030000d9
:020000040000fa
:0400e8003c030000d5
:020000040000fa
:0400ec003c030000d1
:020000040000fa
:0400f0003c030000cd
:020000040000fa
:0400f4003c030000c9
:020000040000fa
:0400f8003c030000c5
:020000040000fa
:0400fc003c030000c1
:020000040000fa
:040100003c030000bc
:020000040000fa
:040104003c030000b8
:020000040000fa
:040108003c030000b4
:020000040000fa
:04010c003c030000b0
:020000040000fa
:040110003c030000ac
:020000040000fa
:040114003c030000a8
:020000040000fa
:040118003c030000a4
:020000040000fa
:04011c003c030000a0
:020000040000fa
:040120003c0300009c
:020000040000fa
:040124003c03000098
:020000040000fa
:040128003c03000094
:020000040000fa
:04012c003c03000090
:020000040000fa
:040130003c0300008c
:020000040000fa
:040134003c03000088
:020000040000fa
:040138003c03000084
:020000040000fa
:04013c003c03000080
:020000040000fa
:040140003c0300007c
:020000040000fa
:040144003c03000078
:020000040000fa
:040148003c03000074
:020000040000fa
:04014c003c03000070
:020000040000fa
:040150003c0300006c
:020000040000fa
:040154003c03000068
:020000040000fa
:040158003c03000064
:020000040000fa
:04015c003c03000060
:020000040000fa
:040160003c0300005c
:020000040000fa
:040164003c03000058
:020000040000fa
:040168003c03000054
:020000040000fa
:040208003c030000b3
:020000040000fa
:04020c003c030000af
:020000040000fa
:040210003c030000ab
:020000040000fa
:040214003c030000a7
:020000040000fa
:040218003c030000a3
:020000040000fa
:04021c003c0300009f
:020000040000fa
:040220003c0300009b
:020000040000fa
:040224003c03000097
:020000040000fa
:040228003c03000093
:020000040000fa
:04022c003c0300008f
:020000040000fa
:040230003c0300008b
:020000040000fa
:040234003c03000087
:020000040000fa
:040238003c03000083
:020000040000fa
:04023c003c0300007f
:020000040000fa
:040240003c0300007b
:020000040000fa
:040244003c03000077
:020000040000fa
:040248003c03000073
:020000040000fa
:04024c003c0300006f
:020000040000fa
:040250003c0300006b
:020000040000fa
:040254003c03000067
:020000040000fa
:040258003c03000063
:020000040000fa
:04025c003c0300005f
:020000040000fa
:040260003c0300005b
:020000040000fa
:040264003c03000057
:020000040000fa
:040268003c03000053
:020000040000fa
:04026c003c0300004f
:020000040000fa
:040270003c0300004b
:020000040000fa
:040274003c03000047
:020000040000fa
:040278003c03000043
:020000040000fa
:04027c003c0300003f
:020000040000fa
:040280003c0300003b
:020000040000fa
:040284003c03000037
:020000040000fa
:040288003c03000033
:020000040000fa
:04028c003c0300002f
:020000040000fa
:040290003c0300002b
:020000040000fa
:040294003c03000027
:020000040000fa
:040298003c03000023
:020000040000fa
:04029c003c0300001f
:020000040000fa
:0402a0003c0300001b
:020000040000fa
:0402a4003c03000017
:020000040000fa
:0402a8003c03000013
:020000040000fa
:0402ac003c0300000f
:020000040000fa
:0402b0003c0300000b
:020000040000fa
:0402b4003c03000007
:020000040000fa
:0402b8003c03000003
:020000040000fa
:0402bc003c030000ff
:020000040000fa
:0402c0003c030000fb
:020000040000fa
:0402c4003c030000f7
:020000040000fa
:0402c8003c030000f3
:020000040000fa
:0402cc003c030000ef
:020000040000fa
:0402d0003c030000eb
:020000040000fa
:0402d4003c030000e7
:020000040000fa
:0402d8003c030000e3
:020000040000fa
:0402dc003c030000df
:020000040000fa
:0402e0003c030000db
:020000040000fa
:0402e4003c030000d7
:020000040000fa
:0402e8003c030000d3
:020000040000fa
:0402ec003c030000cf
:020000040000fa
:0402f0003c030000cb
:020000040000fa
:0402f4003c030000c7
:020000040000fa
:0402f8003c030000c3
:020000040000fa
:0402fc003c030000bf
:020000040000fa
:040300003c030000ba
:020000040000fa
:040304003c030000b6
:020000040000fa
:040308003c030000b2
:020000040000fa
:04030c003c030000ae
:020000040000fa
:040310003c030000aa
:020000040000fa
:040314003c030000a6
:020000040000fa
:040318003c030000a2
:020000040000fa
:04031c003c0300009e
:020000040000fa
:040320003c0300009a
:020000040000fa
:040324003c03000096
:020000040000fa
:040328003c03000092
:020000040000fa
:04032c003c0300008e
:020000040000fa
:040330003c0300008a
:020000040000fa
:040334003c03000086
:020000040000fa
:040338003c03000082
:020000040000fa
:04033c003c0300007e
:020000040000fa
:040340003c0300007a
:020000040000fa
:040344003c03000076
:020000040000fa
:040348003c03000072
:020000040000fa
:04034c003c0300006e
:020000040000fa
:040350003c0300006a
:020000040000fa
:040354003c03000066
:020000040000fa
:040358003c03000062
:020000040000fa
:04035c003c0300005e
:020000040000fa
:040360003c0300005a
:020000040000fa
:040364003c03000056
:020000040000fa
:040368003c03000052
:020000040000fa
:100400004f8020000eff20000e0188000000000039
:10041000000020000000e000020032000001200087
:100420002002880014000700950007000000e0008b
:1004300003003a00c0422000010020000200370003
:100440000000200001002000810f70000100320038
:1004500014000700000020000000e000020032004d
:10046000000002000000000018040200000000006c
:100470000040da000000fe004440a9000000200017
:100480000000e0000300320000002000a00188000e
:100490004440a800000006008a1f78008b1f7800e7
:1004a0000000060091018800800478000000eb0045
:1004b0001a003700e284440032a0b4009905ba0063
:1004c000e284440032a0b4009906ba00e2844400f9
:1004d00032a0b4000006eb00476fde00fd07b2005b
:1004e000636ce10003003a00ebff07000000eb0043
:1004f0000a003700606ce10004003a00005deb0088
:100500008b05e900fdff3e00040037006168e10053
:10051000010032000086eb000b00070019c7ba008b
:100520001905ba000e04e00003003a000a00e000da
:10053000e0ff3a0000000600fe07b2009e018800be
:100540008a047800f5ff3700395dba008b05e900b1
:100550000c003200295dba008b05e900080032006a
:100560000c00e00003003a00e284440032a0b40032
:10057000f5ff370019ddba008b05e900faff3a00f4
:100580008904e800e184440032a0b40000000600c1
:1005900000000000000000003600f800809fbe0050
:1005a000829fbe00849fbe00869fbe003400f8007c
:1005b00000002000a00188000000fa000040800038
:1005c0000000e80000408800014080004006200054
:1005d000808f500002003400803e200000000100a7
:1005e0008440a9000080fa003400f9004f03be00e7
:1005f0004f02be004f01be004f00be003600f900a2
:10060000004006003600f800809fbe00829fbe00ba
:10061000849fbe00869fbe000000fa008660a9008d
:100620005116800000002100008060000000e00002
:1006300003003200803e2000000001000700370068
:100640005116800000002200008060000000e000e1
:1006500002003200803e2000000001000080fa000d
:100660004f03be004f02be004f01be004f00be0050
:100670003600f900004006000040da000000fe00ed
:040680000000050071
:020000040000fa
:100684000000fa00c022a900e024a900c902a900c0
:10069400c922a900c9a2a900c982a800e064a800cf
:1006a4000080fa00000006000000fa009021ef002c
:1006b4009221ef0060f92000b00c880080a923008b
:1006c400a00c8800810c800000c021000100700093
:1006d400800c8800900c8000f001b300900c88001e
:1006e40092e1a900810c800080ff2f00008060004f
:1006f4006000b300800c88009440a8008440a900e6
:100704000080fa00000006000000fa0062a0a800c1
:100714006ea0a90061058000f0ff280080806000c1
:100724000000260001007000600588009660a800a3
:100734008660a9000080fa00000006000000fa00ac
:10074400111a8000f0ff230000806000101a880056
:1007540043a3a90030c0b30044e3b700011a8000ea
:10076400f0f02f008080600000072000010070007e
:10077400001a88004043a800211a8000f00f2e00c0
:10078400008060000080a000201a88004343a80075
:100794005043a8004143a800011a8000f0cf2f0065
:1007a40000806000001a88004363a800111a8000ca
:1007b40030f82f00008060000020a000101a88008c
:1007c40041e3a8000080fa00000006000000fa00df
:1007d4009621ef000080fa00000006000000fa00f5
:1007e400cd02a800cda2a9000080fa0000000600f6
:1007f4000000fa00cd02a800cda2a8000080fa00f3
:10080400000006000000fa00f9ff070000000000e5
:100814001040800080007800e0188000808f500035
:10082400fbff3e000080fa00000006000000fa0012
:10083400c022a900e024a900c902a900c922a90074
:10084400c9a2a900c982a800e064a800c422a80023
:04085400feff37006c
:020000040000fa
:10085800000800000200000000000000020800007c
:100868000200000002000000c800000000000000b4
:020000040000fa
:0200000401f009
:04000c00f8ff0000f9
:020000040000fa
:0200000401f009
:04001c00fdff0000e4
:00000001FF
