:020000040000fa
:080000000002040000000000f2
:020000040000fa
:040008005e03000093
:020000040000fa
:04000c005e0300008f
:020000040000fa
:040010005e0300008b
:020000040000fa
:040014005e03000087
:020000040000fa
:040018005e03000083
:020000040000fa
:04001c005e0300007f
:020000040000fa
:040020005e0300007b
:020000040000fa
:040024005e03000077
:020000040000fa
:040028005e03000073
:020000040000fa
:04002c005e0300006f
:020000040000fa
:04003000c802000002
:020000040000fa
:040034005e03000067
:020000040000fa
:040038005e03000063
:020000040000fa
:04003c005e0300005f
:020000040000fa
:040040005e0300005b
:020000040000fa
:040044003e03000077
:020000040000fa
:040048005e03000053
:020000040000fa
:04004c005e0300004f
:020000040000fa
:040050005e0300004b
:020000040000fa
:040054005e03000047
:020000040000fa
:040058005e03000043
:020000040000fa
:04005c005e0300003f
:020000040000fa
:040060005e0300003b
:020000040000fa
:040064005e03000037
:020000040000fa
:040068005e03000033
:020000040000fa
:04006c005e0300002f
:020000040000fa
:040070005e0300002b
:020000040000fa
:04007400080300007d
:020000040000fa
:040078005e03000023
:020000040000fa
:04007c005e0300001f
:020000040000fa
:040080005e0300001b
:020000040000fa
:040084005e03000017
:020000040000fa
:040088005e03000013
:020000040000fa
:04008c005e0300000f
:020000040000fa
:040090005e0300000b
:020000040000fa
:040094005e03000007
:020000040000fa
:040098005e03000003
:020000040000fa
:04009c005e030000ff
:020000040000fa
:0400a0005e030000fb
:020000040000fa
:0400a4005e030000f7
:020000040000fa
:0400a8005e030000f3
:020000040000fa
:0400ac005e030000ef
:020000040000fa
:0400b0005e030000eb
:020000040000fa
:0400b4005e030000e7
:020000040000fa
:0400b8005e030000e3
:020000040000fa
:0400bc005e030000df
:020000040000fa
:0400c0005e030000db
:020000040000fa
:0400c4005e030000d7
:020000040000fa
:0400c8005e030000d3
:020000040000fa
:0400cc005e030000cf
:020000040000fa
:0400d0005e030000cb
:020000040000fa
:0400d4005e030000c7
:020000040000fa
:0400d8005e030000c3
:020000040000fa
:0400dc005e030000bf
:020000040000fa
:0400e0005e030000bb
:020000040000fa
:0400e4005e030000b7
:020000040000fa
:0400e8005e030000b3
:020000040000fa
:0400ec005e030000af
:020000040000fa
:0400f0005e030000ab
:020000040000fa
:0400f4005e030000a7
:020000040000fa
:0400f8005e030000a3
:020000040000fa
:0400fc005e0300009f
:020000040000fa
:040100005e0300009a
:020000040000fa
:040104005e03000096
:020000040000fa
:040108005e03000092
:020000040000fa
:04010c005e0300008e
:020000040000fa
:040110005e0300008a
:020000040000fa
:040114005e03000086
:020000040000fa
:040118005e03000082
:020000040000fa
:04011c005e0300007e
:020000040000fa
:040120005e0300007a
:020000040000fa
:040124005e03000076
:020000040000fa
:040128005e03000072
:020000040000fa
:04012c005e0300006e
:020000040000fa
:040130005e0300006a
:020000040000fa
:040134005e03000066
:020000040000fa
:040138005e03000062
:020000040000fa
:04013c005e0300005e
:020000040000fa
:040140005e0300005a
:020000040000fa
:040144005e03000056
:020000040000fa
:040148005e03000052
:020000040000fa
:04014c005e0300004e
:020000040000fa
:040150005e0300004a
:020000040000fa
:040154005e03000046
:020000040000fa
:040158005e03000042
:020000040000fa
:04015c005e0300003e
:020000040000fa
:040160005e0300003a
:020000040000fa
:040164005e03000036
:020000040000fa
:040168005e03000032
:020000040000fa
:040208005e03000091
:020000040000fa
:04020c005e0300008d
:020000040000fa
:040210005e03000089
:020000040000fa
:040214005e03000085
:020000040000fa
:040218005e03000081
:020000040000fa
:04021c005e0300007d
:020000040000fa
:040220005e03000079
:020000040000fa
:040224005e03000075
:020000040000fa
:040228005e03000071
:020000040000fa
:04022c005e0300006d
:020000040000fa
:040230005e03000069
:020000040000fa
:040234005e03000065
:020000040000fa
:040238005e03000061
:020000040000fa
:04023c005e0300005d
:020000040000fa
:040240005e03000059
:020000040000fa
:040244005e03000055
:020000040000fa
:040248005e03000051
:020000040000fa
:04024c005e0300004d
:020000040000fa
:040250005e03000049
:020000040000fa
:040254005e03000045
:020000040000fa
:040258005e03000041
:020000040000fa
:04025c005e0300003d
:020000040000fa
:040260005e03000039
:020000040000fa
:040264005e03000035
:020000040000fa
:040268005e03000031
:020000040000fa
:04026c005e0300002d
:020000040000fa
:040270005e03000029
:020000040000fa
:040274005e03000025
:020000040000fa
:040278005e03000021
:020000040000fa
:04027c005e0300001d
:020000040000fa
:040280005e03000019
:020000040000fa
:040284005e03000015
:020000040000fa
:040288005e03000011
:020000040000fa
:04028c005e0300000d
:020000040000fa
:040290005e03000009
:020000040000fa
:040294005e03000005
:020000040000fa
:040298005e03000001
:020000040000fa
:04029c005e030000fd
:020000040000fa
:0402a0005e030000f9
:020000040000fa
:0402a4005e030000f5
:020000040000fa
:0402a8005e030000f1
:020000040000fa
:0402ac005e030000ed
:020000040000fa
:0402b0005e030000e9
:020000040000fa
:0402b4005e030000e5
:020000040000fa
:0402b8005e030000e1
:020000040000fa
:0402bc005e030000dd
:020000040000fa
:0402c0005e030000d9
:020000040000fa
:0402c4005e030000d5
:020000040000fa
:0402c8005e030000d1
:020000040000fa
:0402cc005e030000cd
:020000040000fa
:0402d0005e030000c9
:020000040000fa
:0402d4005e030000c5
:020000040000fa
:0402d8005e030000c1
:020000040000fa
:0402dc005e030000bd
:020000040000fa
:0402e0005e030000b9
:020000040000fa
:0402e4005e030000b5
:020000040000fa
:0402e8005e030000b1
:020000040000fa
:0402ec005e030000ad
:020000040000fa
:0402f0005e030000a9
:020000040000fa
:0402f4005e030000a5
:020000040000fa
:0402f8005e030000a1
:020000040000fa
:0402fc005e0300009d
:020000040000fa
:040300005e03000098
:020000040000fa
:040304005e03000094
:020000040000fa
:040308005e03000090
:020000040000fa
:04030c005e0300008c
:020000040000fa
:040310005e03000088
:020000040000fa
:040314005e03000084
:020000040000fa
:040318005e03000080
:020000040000fa
:04031c005e0300007c
:020000040000fa
:040320005e03000078
:020000040000fa
:040324005e03000074
:020000040000fa
:040328005e03000070
:020000040000fa
:04032c005e0300006c
:020000040000fa
:040330005e03000068
:020000040000fa
:040334005e03000064
:020000040000fa
:040338005e03000060
:020000040000fa
:04033c005e0300005c
:020000040000fa
:040340005e03000058
:020000040000fa
:040344005e03000054
:020000040000fa
:040348005e03000050
:020000040000fa
:04034c005e0300004c
:020000040000fa
:040350005e03000048
:020000040000fa
:040354005e03000044
:020000040000fa
:040358005e03000040
:020000040000fa
:04035c005e0300003c
:020000040000fa
:040360005e03000038
:020000040000fa
:040364005e03000034
:020000040000fa
:040368005e03000030
:020000040000fa
:100400008f8020000eff20000e01880000000000f9
:10041000000020000000e000020032000001200087
:100420002002880014000700a60007000000e0007a
:1004300003003a00c04e20000100200002003700f7
:100440000000200001002000810f70000100320038
:1004500014000700000020000000e000020032004d
:100460000000020000000000b204020000000000d2
:100470000040da000000fe004440a9000000200017
:100480000000e0000300320000002000a00188000e
:100490004440a800000006008a1f78008b1f7800e7
:1004a0000000060091018800800478000000eb0045
:1004b0001a003700e284440032a0b4009905ba0063
:1004c000e284440032a0b4009906ba00e2844400f9
:1004d00032a0b4000006eb00476fde00fd07b2005b
:1004e000636ce10003003a00ebff07000000eb0043
:1004f0000a003700606ce10004003a00005deb0088
:100500008b05e900fdff3e00040037006168e10053
:10051000010032000086eb000b00070019c7ba008b
:100520001905ba000e04e00003003a000a00e000da
:10053000e0ff3a0000000600fe07b2009e018800be
:100540008a047800f5ff3700395dba008b05e900b1
:100550000c003200295dba008b05e900080032006a
:100560000c00e00003003a00e284440032a0b40032
:10057000f5ff370019ddba008b05e900faff3a00f4
:100580008904e800e184440032a0b40000000600c1
:100590003600f800809fbe00829fbe00849fbe0090
:1005a000869fbe003400f80000002000a0018800f3
:1005b0000000fa00004080000000e80000408800d1
:1005c0000140800080252000808f5000070034000b
:1005d000204080000000e00004003a0055000700c1
:1005e00010002000104088000028ef008440a9007f
:1005f0000080fa003400f9004f03be004f02be0035
:100600004f01be004f00be003600f900004006005a
:100610003600f800809fbe00829fbe00849fbe000f
:10062000869fbe000000fa008660a9005116800077
:1006300000002100008060000000e00002003200a5
:100640003c00070006003700511680000000220021
:10065000008060000000e00001003200350007006b
:100660000080fa004f03be004f02be004f01be00e3
:100670004f00be003600f90000400600809fbe001b
:100680000000fa0084e0a9000621ef00510d80006f
:1006900040062000808f500003003e000032200002
:1006a000500d88000200370040062000500d8800e1
:1006b0000080fa004f00be00004006000040da0053
:0806c0000000fe00000005002f
:020000040000fa
:1006c8000000fa00c002a900e004a900c022a900a5
:1006d800e024a900c802a900c822a900c842a800ad
:1006e800e244a800c042a900e044a900c062a800f2
:1006f800e064a800c8e2a900c902a900c922a900ab
:10070800c0c2a900c982a800e384a900c9a2a800a0
:10071800e3a4a900c9c2a900e3c4a900c9e2a900c9
:10072800e3e4a9000080fa00000006000000fa00d7
:100738009621ef000080fa00000006000000fa0091
:1007480060f92000b00c8800cd02a900cd22a800d5
:100758000080fa00000006000000fa0060f920009e
:10076800b00c8800cd02a800cd22a8000080fa00b5
:10077800000006000000fa00f7ff07000000000074
:100788003040800080007800e0188000808f5000a2
:10079800fbff3e00cce2a800e4ff070010002000a9
:1007a800104088000080fa00000006000000fa00ef
:1007b8009021ef009221ef0060f92000b00c880032
:1007c80080a92300a00c8800810c800000c02100b3
:1007d80001007000800c8800900c8000f001b300cc
:1007e800900c880092e1a900810c800080ff2f0006
:1007f800008060006000b300800c88009440a8006e
:100808000080fa00000006000000fa0062a0a800bc
:100818006ea0a90061058000f0ff280080806000bc
:100828000000260001007000600588009660a8009e
:100838008660a9000080fa00000006000000fa00a7
:10084800111a8000f0ff230000806000101a880051
:1008580043a3a90030c0b30044e3b700011a8000e5
:10086800f0f02f0080806000000720000100700079
:10087800001a88004043a800211a8000f00f2e00bb
:10088800808060000030200001007000201a88007d
:100898004343a80051c3a8004143a800011a80009f
:1008a800f0cf2f0000806000001a88004363a80082
:1008b800111a800030f82f00008060000020a0008e
:1008c800101a880041e3a8000080fa000000060022
:1008d8000000fa0011e1a8001021a9008108800099
:1008e800000320000100700080088800b009200083
:1008f800600888000621ef0094e0a9000080fa0053
:10090800000006000000fa00a421ef00a621ef0075
:1009180060f92000500d880000c42900400d8800af
:10092800210d800000c0210001007000200d88000a
:10093800300d8000f001b300300d8800a6e1a90059
:10094800210d800080ff2f00008060006000b30050
:10095800200d88000080fa00000006000000fa0060
:10096800dbff070056ff0700e6ff07004083200073
:10097800500d880000902000d103200006000700d9
:1009880080bb2000500d880000902000d10320007b
:0809980001000700f5ff370024
:020000040000fa
:1009a000f03fb1000180b10006003500ee03090000
:1009b00000000000403fb1000180b100fbff3d009e
:1009c0001000b000203fb000020035000080090098
:0809d000000000000000060019
:020000040000fa
:1009d80000080000060000000000000006080000f3
:1009e8000200000002000000b80b00000000000038
:020000040000fa
:0200000401f009
:04000c00f8ff0000f9
:020000040000fa
:0200000401f009
:04001c00fdff0000e4
:00000001FF
