:020000040000fa
:080000000002040000000000f2
:020000040000fa
:040008003c030000b5
:020000040000fa
:04000c003c030000b1
:020000040000fa
:040010003c030000ad
:020000040000fa
:040014003c030000a9
:020000040000fa
:040018003c030000a5
:020000040000fa
:04001c003c030000a1
:020000040000fa
:040020003c0300009d
:020000040000fa
:040024003c03000099
:020000040000fa
:040028003c03000095
:020000040000fa
:04002c003c03000091
:020000040000fa
:04003000c802000002
:020000040000fa
:040034003c03000089
:020000040000fa
:040038003c03000085
:020000040000fa
:04003c003c03000081
:020000040000fa
:04004000e2020000d8
:020000040000fa
:040044003c03000079
:020000040000fa
:040048003c03000075
:020000040000fa
:04004c003c03000071
:020000040000fa
:040050003c0300006d
:020000040000fa
:040054003c03000069
:020000040000fa
:040058003c03000065
:020000040000fa
:04005c003c03000061
:020000040000fa
:040060003c0300005d
:020000040000fa
:040064003c03000059
:020000040000fa
:040068003c03000055
:020000040000fa
:04006c003c03000051
:020000040000fa
:040070003c0300004d
:020000040000fa
:04007400fc0200008a
:020000040000fa
:040078003c03000045
:020000040000fa
:04007c003c03000041
:020000040000fa
:040080003c0300003d
:020000040000fa
:040084003c03000039
:020000040000fa
:040088003c03000035
:020000040000fa
:04008c003c03000031
:020000040000fa
:040090003c0300002d
:020000040000fa
:040094003c03000029
:020000040000fa
:040098003c03000025
:020000040000fa
:04009c003c03000021
:020000040000fa
:0400a0003c0300001d
:020000040000fa
:0400a4003c03000019
:020000040000fa
:0400a8003c03000015
:020000040000fa
:0400ac003c03000011
:020000040000fa
:0400b0003c0300000d
:020000040000fa
:0400b4003c03000009
:020000040000fa
:0400b8003c03000005
:020000040000fa
:0400bc003c03000001
:020000040000fa
:0400c0003c030000fd
:020000040000fa
:0400c4003c030000f9
:020000040000fa
:0400c8003c030000f5
:020000040000fa
:0400cc003c030000f1
:020000040000fa
:0400d0003c030000ed
:020000040000fa
:0400d4003c030000e9
:020000040000fa
:0400d8003c030000e5
:020000040000fa
:0400dc003c030000e1
:020000040000fa
:0400e0003c030000dd
:020000040000fa
:0400e4003c030000d9
:020000040000fa
:0400e8003c030000d5
:020000040000fa
:0400ec003c030000d1
:020000040000fa
:0400f0003c030000cd
:020000040000fa
:0400f4003c030000c9
:020000040000fa
:0400f8003c030000c5
:020000040000fa
:0400fc003c030000c1
:020000040000fa
:040100003c030000bc
:020000040000fa
:040104003c030000b8
:020000040000fa
:040108003c030000b4
:020000040000fa
:04010c003c030000b0
:020000040000fa
:040110003c030000ac
:020000040000fa
:040114003c030000a8
:020000040000fa
:040118003c030000a4
:020000040000fa
:04011c003c030000a0
:020000040000fa
:040120003c0300009c
:020000040000fa
:040124003c03000098
:020000040000fa
:040128003c03000094
:020000040000fa
:04012c003c03000090
:020000040000fa
:040130003c0300008c
:020000040000fa
:040134003c03000088
:020000040000fa
:040138003c03000084
:020000040000fa
:04013c003c03000080
:020000040000fa
:040140003c0300007c
:020000040000fa
:040144003c03000078
:020000040000fa
:040148003c03000074
:020000040000fa
:04014c003c03000070
:020000040000fa
:040150003c0300006c
:020000040000fa
:040154003c03000068
:020000040000fa
:040158003c03000064
:020000040000fa
:04015c003c03000060
:020000040000fa
:040160003c0300005c
:020000040000fa
:040164003c03000058
:020000040000fa
:040168003c03000054
:020000040000fa
:040208003c030000b3
:020000040000fa
:04020c003c030000af
:020000040000fa
:040210003c030000ab
:020000040000fa
:040214003c030000a7
:020000040000fa
:040218003c030000a3
:020000040000fa
:04021c003c0300009f
:020000040000fa
:040220003c0300009b
:020000040000fa
:040224003c03000097
:020000040000fa
:040228003c03000093
:020000040000fa
:04022c003c0300008f
:020000040000fa
:040230003c0300008b
:020000040000fa
:040234003c03000087
:020000040000fa
:040238003c03000083
:020000040000fa
:04023c003c0300007f
:020000040000fa
:040240003c0300007b
:020000040000fa
:040244003c03000077
:020000040000fa
:040248003c03000073
:020000040000fa
:04024c003c0300006f
:020000040000fa
:040250003c0300006b
:020000040000fa
:040254003c03000067
:020000040000fa
:040258003c03000063
:020000040000fa
:04025c003c0300005f
:020000040000fa
:040260003c0300005b
:020000040000fa
:040264003c03000057
:020000040000fa
:040268003c03000053
:020000040000fa
:04026c003c0300004f
:020000040000fa
:040270003c0300004b
:020000040000fa
:040274003c03000047
:020000040000fa
:040278003c03000043
:020000040000fa
:04027c003c0300003f
:020000040000fa
:040280003c0300003b
:020000040000fa
:040284003c03000037
:020000040000fa
:040288003c03000033
:020000040000fa
:04028c003c0300002f
:020000040000fa
:040290003c0300002b
:020000040000fa
:040294003c03000027
:020000040000fa
:040298003c03000023
:020000040000fa
:04029c003c0300001f
:020000040000fa
:0402a0003c0300001b
:020000040000fa
:0402a4003c03000017
:020000040000fa
:0402a8003c03000013
:020000040000fa
:0402ac003c0300000f
:020000040000fa
:0402b0003c0300000b
:020000040000fa
:0402b4003c03000007
:020000040000fa
:0402b8003c03000003
:020000040000fa
:0402bc003c030000ff
:020000040000fa
:0402c0003c030000fb
:020000040000fa
:0402c4003c030000f7
:020000040000fa
:0402c8003c030000f3
:020000040000fa
:0402cc003c030000ef
:020000040000fa
:0402d0003c030000eb
:020000040000fa
:0402d4003c030000e7
:020000040000fa
:0402d8003c030000e3
:020000040000fa
:0402dc003c030000df
:020000040000fa
:0402e0003c030000db
:020000040000fa
:0402e4003c030000d7
:020000040000fa
:0402e8003c030000d3
:020000040000fa
:0402ec003c030000cf
:020000040000fa
:0402f0003c030000cb
:020000040000fa
:0402f4003c030000c7
:020000040000fa
:0402f8003c030000c3
:020000040000fa
:0402fc003c030000bf
:020000040000fa
:040300003c030000ba
:020000040000fa
:040304003c030000b6
:020000040000fa
:040308003c030000b2
:020000040000fa
:04030c003c030000ae
:020000040000fa
:040310003c030000aa
:020000040000fa
:040314003c030000a6
:020000040000fa
:040318003c030000a2
:020000040000fa
:04031c003c0300009e
:020000040000fa
:040320003c0300009a
:020000040000fa
:040324003c03000096
:020000040000fa
:040328003c03000092
:020000040000fa
:04032c003c0300008e
:020000040000fa
:040330003c0300008a
:020000040000fa
:040334003c03000086
:020000040000fa
:040338003c03000082
:020000040000fa
:04033c003c0300007e
:020000040000fa
:040340003c0300007a
:020000040000fa
:040344003c03000076
:020000040000fa
:040348003c03000072
:020000040000fa
:04034c003c0300006e
:020000040000fa
:040350003c0300006a
:020000040000fa
:040354003c03000066
:020000040000fa
:040358003c03000062
:020000040000fa
:04035c003c0300005e
:020000040000fa
:040360003c0300005a
:020000040000fa
:040364003c03000056
:020000040000fa
:040368003c03000052
:020000040000fa
:100400002f8120000eff20000e0188000000000058
:10041000000020000000e000020032000001200087
:100420002002880014000700950007000000e0008b
:1004300003003a0040642000010020000200370061
:100440000000200001002000810f70000100320038
:1004500014000700000020000000e000020032004d
:10046000000002000000000028050200000000005b
:100470000040da000000fe004440a9000000200017
:100480000000e0000300320000002000a00188000e
:100490004440a800000006008a1f78008b1f7800e7
:1004a0000000060091018800800478000000eb0045
:1004b0001a003700e284440032a0b4009905ba0063
:1004c000e284440032a0b4009906ba00e2844400f9
:1004d00032a0b4000006eb00476fde00fd07b2005b
:1004e000636ce10003003a00ebff07000000eb0043
:1004f0000a003700606ce10004003a00005deb0088
:100500008b05e900fdff3e00040037006168e10053
:10051000010032000086eb000b00070019c7ba008b
:100520001905ba000e04e00003003a000a00e000da
:10053000e0ff3a0000000600fe07b2009e018800be
:100540008a047800f5ff3700395dba008b05e900b1
:100550000c003200295dba008b05e900080032006a
:100560000c00e00003003a00e284440032a0b40032
:10057000f5ff370019ddba008b05e900faff3a00f4
:100580008904e800e184440032a0b40000000600c1
:10059000801f78003400f80000002000a0018800cf
:1005a0000000fa00704080000000e8007040880001
:1005b0008440a9000080fa003400f9004f00780060
:1005c00000400600801f78003400f8000000200082
:1005d000a00188000000fa00804080000000e800d0
:1005e0008040880084c0a9000080fa003400f9002f
:1005f0004f007800004006003600f800809fbe00e3
:10060000829fbe00849fbe00869fbe000000fa004d
:100610008660a9000dc8bf000004e0000e003a008b
:100620005116800000002100008060000000e00002
:1006300002003200da00070008003700511680007f
:1006400000002200008060000000e0000300320093
:10065000d300070001003700000000000080fa000e
:100660004f03be004f02be004f01be004f00be0050
:100670003600f900004006000040da000000fe00ed
:040680000000050071
:020000040000fa
:100684000000fa00c002a900e004a900c022a900e9
:10069400e024a900c802a900c822a900c842a800f1
:1006a400e244a800c042a900e044a900e064a80014
:1006b400c8e2a900c902a900c922a900c0c2a900b0
:1006c400c982a800e384a900c9a2a800e3a4a900e0
:1006d400c9c2a900e3c4a900c9e2a900e3e4a900ce
:1006e4000080fa00000006000000fa0011e1a800f2
:1006f4001021a90081088000f0fc2f000080600018
:100704000040a00080088800803e20006008880027
:100714000621ef000080fa00000006000000fa0045
:10072400111a8000f0ff230000806000101a880076
:1007340043a3a90030c0b30044e3b700011a80000a
:10074400f0f02f008080600000072000010070009e
:10075400001a88004043a800211a8000f00f2e00e0
:10076400808060000030200001007000201a8800a2
:100774004343a80051c3a8005083a8004143a800e4
:10078400011a8000f0cf2f0000806000001a88005a
:100794004363a800111a800030f82f000080600025
:1007a4000030a000101a880041e3a8000080fa007d
:1007b400000006000000fa00a421ef00a621ef00cb
:1007c40000232000500d8800f0702200400d8800a6
:1007d400210d8000f03f2e0000806000200d880075
:1007e400300d8000f001b300300d8800a6e1a900af
:1007f400210d800080ff2f00008060006000b300a6
:10080400200d88000080fa00000006000000fa00b5
:1008140063c0a8006ea0a90061058000f0ff280055
:1008240080806000000026000100700060058800e0
:100834009660a8008660a9000080fa000000060007
:100844000000fa009021ef009221ef0060f92000ef
:10085400b00c880080a92300a00c8800810c8000c3
:1008640000c0210001007000800c8800900c800002
:10087400f001b300900c880092e1a900810c800083
:1008840080ff2f00008060006000b300800c8800af
:100894009440a8008440a900cde2a9000080fa0099
:1008a400000006000000fa009a21ef009c21ef00ee
:1008b40060f92000000d880080a92300f00c880056
:1008c400d10c800000c0210001007000d00c880011
:1008d400e00c8000f001b300e00c88009ce1a9006a
:1008e400d10c800080ff2f00008060006000b30006
:1008f400d00c880094c0a80084c0a9000080fa002d
:10090400000006000000fa00cde2a800cd02a80015
:10091400cd22a8000080fa00000006000000fa00c2
:10092400cde2a80010c0b3000ce8b700cd02a900c6
:10093400cd22a8000cc8bf000004e000fdff3a006f
:100944000080fa00000006000000fa0010c0b300a6
:100954000de8b700801a2600a00c8800cde2a8009c
:1009640010c0b3000ce8b700cd02a900cd22a80046
:100974000e28ef000000000071408000700c200081
:10098400808f5000fcff340080a92300a00c880055
:100994000d68ef000080fa00000006000000fa0075
:1009a4000c68ef00cde2a9000080fa000000060008
:1009b4000000fa00cde2a8000e28ef00cd02a80046
:1009c400cd22a9000000000071408000104080008a
:1009d400808f5000fcff3500cde2a9000080fa00b2
:1009e400000006000000fa00c6ff07000000000037
:1009f400004080008000780040188000808f500004
:100a0400fbff3e00e5ff0700c4ff0700e3ff07000c
:100a14000080fa00000006000000fa00cde2a80001
:100a24000e28ef00cd02a800cd22a800000000008f
:100a34007140800020408000808f5000fcff350012
:100a4400cde2a9000080fa00000006000000fa00d0
:100a54000bff070024ff070079ff070091ff070041
:100a640054ff070069ff07002cff070010c0b30004
:100a74000ce8b7000cc8bf000004e000fdff3a001a
:100a8400d8ff070000482800e10120006f0007009c
:100a9400adff0700c1ff070000902000d103200034
:100aa4006a000700c442a800802f2000500d88006f
:100ab40000482800e101200064000700001920001c
:100ac400500d880000482800e10120005f00070065
:100ad40000232000500d880000482800e101200078
:100ae4005a0007002b003700cdc2a800cce2a800b2
:100af40000482800e101200054000700cdc2a900ed
:100b0400cce2a90000902000d10320004f00070090
:100b140001003700000000003040800080007800b1
:100b2400e0188000808f5000efff3e0040408000be
:100b340080007800e0188000808f50000b003100a6
:100b4400802f2000500d880000902000d103200049
:100b54003e00070000232000500d88005040800014
:100b64000000e800504088000a0037000019200007
:100b7400500d880000902000d103200033000700ae
:100b840000232000500d8800504080000000e80041
:100b94005040880050408000e70f5000ddff3400d3
:100ba400c442a90082ff070000242400f1002000b1
:100bb4002600070098ff070000242400f10020000d
:100bc4002200070055ff070000242400f100200044
:100bd4001e0007005cff070070ff070000242400cc
:100be400f100200019000700c422a800c402a800d4
:100bf4001028ef0001003700000000008140800051
:100c0400e0242000808f5000fbff3400c402a900c0
:100c140000202100a10720000c000700c422a90025
:100c2400c402a8001028ef000100370000000000f3
:100c340081408000e0242000808f5000fbff3400be
:0c0c4400cce2a900c402a900ffff3700a9
:020000040000fa
:100c5000f03fb1000180b10006003500ee0309004d
:100c600000000000403fb1000180b100fbff3d00eb
:100c70001000b000203fb0000200350000800900e5
:080c8000000000000000060066
:020000040000fa
:100c88000a0800000800000000000000000800003a
:100c98000a0000000200000092091200025401003c
:0c0ca8006c0274000e0000000000000050
:020000040000fa
:0200000401f009
:04000c00f8ff0000f9
:020000040000fa
:0200000401f009
:04001000fbff0000f2
:020000040000fa
:0200000401f009
:04001c00fdff0000e4
:00000001FF
