:020000040000fa
:080000000002040000000000f2
:020000040000fa
:040008005a03000097
:020000040000fa
:04000c005a03000093
:020000040000fa
:040010005a0300008f
:020000040000fa
:040014005a0300008b
:020000040000fa
:040018005a03000087
:020000040000fa
:04001c005a03000083
:020000040000fa
:040020005a0300007f
:020000040000fa
:040024005a0300007b
:020000040000fa
:040028005a03000077
:020000040000fa
:04002c005a03000073
:020000040000fa
:04003000e6020000e4
:020000040000fa
:04003400c8020000fe
:020000040000fa
:040038005a03000067
:020000040000fa
:04003c005a03000063
:020000040000fa
:0400400000030000b9
:020000040000fa
:040044005a0300005b
:020000040000fa
:040048005a03000057
:020000040000fa
:04004c005a03000053
:020000040000fa
:040050005a0300004f
:020000040000fa
:040054005a0300004b
:020000040000fa
:040058005a03000047
:020000040000fa
:04005c005a03000043
:020000040000fa
:040060005a0300003f
:020000040000fa
:040064005a0300003b
:020000040000fa
:040068005a03000037
:020000040000fa
:04006c005a03000033
:020000040000fa
:040070005a0300002f
:020000040000fa
:040074001a0300006b
:020000040000fa
:040078005a03000027
:020000040000fa
:04007c005a03000023
:020000040000fa
:040080005a0300001f
:020000040000fa
:040084005a0300001b
:020000040000fa
:040088005a03000017
:020000040000fa
:04008c005a03000013
:020000040000fa
:040090005a0300000f
:020000040000fa
:040094005a0300000b
:020000040000fa
:040098005a03000007
:020000040000fa
:04009c005a03000003
:020000040000fa
:0400a0005a030000ff
:020000040000fa
:0400a4005a030000fb
:020000040000fa
:0400a8005a030000f7
:020000040000fa
:0400ac005a030000f3
:020000040000fa
:0400b0005a030000ef
:020000040000fa
:0400b4005a030000eb
:020000040000fa
:0400b8005a030000e7
:020000040000fa
:0400bc005a030000e3
:020000040000fa
:0400c0005a030000df
:020000040000fa
:0400c4005a030000db
:020000040000fa
:0400c8005a030000d7
:020000040000fa
:0400cc005a030000d3
:020000040000fa
:0400d0005a030000cf
:020000040000fa
:0400d4005a030000cb
:020000040000fa
:0400d8005a030000c7
:020000040000fa
:0400dc005a030000c3
:020000040000fa
:0400e0005a030000bf
:020000040000fa
:0400e4005a030000bb
:020000040000fa
:0400e8005a030000b7
:020000040000fa
:0400ec005a030000b3
:020000040000fa
:0400f0005a030000af
:020000040000fa
:0400f4005a030000ab
:020000040000fa
:0400f8005a030000a7
:020000040000fa
:0400fc005a030000a3
:020000040000fa
:040100005a0300009e
:020000040000fa
:040104005a0300009a
:020000040000fa
:040108005a03000096
:020000040000fa
:04010c005a03000092
:020000040000fa
:040110005a0300008e
:020000040000fa
:040114005a0300008a
:020000040000fa
:040118005a03000086
:020000040000fa
:04011c005a03000082
:020000040000fa
:040120005a0300007e
:020000040000fa
:040124005a0300007a
:020000040000fa
:040128005a03000076
:020000040000fa
:04012c005a03000072
:020000040000fa
:040130005a0300006e
:020000040000fa
:040134005a0300006a
:020000040000fa
:040138005a03000066
:020000040000fa
:04013c005a03000062
:020000040000fa
:040140005a0300005e
:020000040000fa
:040144005a0300005a
:020000040000fa
:040148005a03000056
:020000040000fa
:04014c005a03000052
:020000040000fa
:040150005a0300004e
:020000040000fa
:040154005a0300004a
:020000040000fa
:040158005a03000046
:020000040000fa
:04015c005a03000042
:020000040000fa
:040160005a0300003e
:020000040000fa
:040164005a0300003a
:020000040000fa
:040168005a03000036
:020000040000fa
:040208005a03000095
:020000040000fa
:04020c005a03000091
:020000040000fa
:040210005a0300008d
:020000040000fa
:040214005a03000089
:020000040000fa
:040218005a03000085
:020000040000fa
:04021c005a03000081
:020000040000fa
:040220005a0300007d
:020000040000fa
:040224005a03000079
:020000040000fa
:040228005a03000075
:020000040000fa
:04022c005a03000071
:020000040000fa
:040230005a0300006d
:020000040000fa
:040234005a03000069
:020000040000fa
:040238005a03000065
:020000040000fa
:04023c005a03000061
:020000040000fa
:040240005a0300005d
:020000040000fa
:040244005a03000059
:020000040000fa
:040248005a03000055
:020000040000fa
:04024c005a03000051
:020000040000fa
:040250005a0300004d
:020000040000fa
:040254005a03000049
:020000040000fa
:040258005a03000045
:020000040000fa
:04025c005a03000041
:020000040000fa
:040260005a0300003d
:020000040000fa
:040264005a03000039
:020000040000fa
:040268005a03000035
:020000040000fa
:04026c005a03000031
:020000040000fa
:040270005a0300002d
:020000040000fa
:040274005a03000029
:020000040000fa
:040278005a03000025
:020000040000fa
:04027c005a03000021
:020000040000fa
:040280005a0300001d
:020000040000fa
:040284005a03000019
:020000040000fa
:040288005a03000015
:020000040000fa
:04028c005a03000011
:020000040000fa
:040290005a0300000d
:020000040000fa
:040294005a03000009
:020000040000fa
:040298005a03000005
:020000040000fa
:04029c005a03000001
:020000040000fa
:0402a0005a030000fd
:020000040000fa
:0402a4005a030000f9
:020000040000fa
:0402a8005a030000f5
:020000040000fa
:0402ac005a030000f1
:020000040000fa
:0402b0005a030000ed
:020000040000fa
:0402b4005a030000e9
:020000040000fa
:0402b8005a030000e5
:020000040000fa
:0402bc005a030000e1
:020000040000fa
:0402c0005a030000dd
:020000040000fa
:0402c4005a030000d9
:020000040000fa
:0402c8005a030000d5
:020000040000fa
:0402cc005a030000d1
:020000040000fa
:0402d0005a030000cd
:020000040000fa
:0402d4005a030000c9
:020000040000fa
:0402d8005a030000c5
:020000040000fa
:0402dc005a030000c1
:020000040000fa
:0402e0005a030000bd
:020000040000fa
:0402e4005a030000b9
:020000040000fa
:0402e8005a030000b5
:020000040000fa
:0402ec005a030000b1
:020000040000fa
:0402f0005a030000ad
:020000040000fa
:0402f4005a030000a9
:020000040000fa
:0402f8005a030000a5
:020000040000fa
:0402fc005a030000a1
:020000040000fa
:040300005a0300009c
:020000040000fa
:040304005a03000098
:020000040000fa
:040308005a03000094
:020000040000fa
:04030c005a03000090
:020000040000fa
:040310005a0300008c
:020000040000fa
:040314005a03000088
:020000040000fa
:040318005a03000084
:020000040000fa
:04031c005a03000080
:020000040000fa
:040320005a0300007c
:020000040000fa
:040324005a03000078
:020000040000fa
:040328005a03000074
:020000040000fa
:04032c005a03000070
:020000040000fa
:040330005a0300006c
:020000040000fa
:040334005a03000068
:020000040000fa
:040338005a03000064
:020000040000fa
:04033c005a03000060
:020000040000fa
:040340005a0300005c
:020000040000fa
:040344005a03000058
:020000040000fa
:040348005a03000054
:020000040000fa
:04034c005a03000050
:020000040000fa
:040350005a0300004c
:020000040000fa
:040354005a03000048
:020000040000fa
:040358005a03000044
:020000040000fa
:04035c005a03000040
:020000040000fa
:040360005a0300003c
:020000040000fa
:040364005a03000038
:020000040000fa
:040368005a03000034
:020000040000fa
:10040000ef8120000eff20000e0188000000000098
:10041000000020000000e000020032000001200087
:100420002002880014000700a40007000000e0007c
:1004300003003a00807f2000010020000200370006
:100440000000200001002000810f70000100320038
:1004500014000700000020000000e000020032004d
:10046000000002000000000042070200000000003f
:100470000040da000000fe004440a9000000200017
:100480000000e0000300320000002000a00188000e
:100490004440a800000006008a1f78008b1f7800e7
:1004a0000000060091018800800478000000eb0045
:1004b0001a003700e284440032a0b4009905ba0063
:1004c000e284440032a0b4009906ba00e2844400f9
:1004d00032a0b4000006eb00476fde00fd07b2005b
:1004e000636ce10003003a00ebff07000000eb0043
:1004f0000a003700606ce10004003a00005deb0088
:100500008b05e900fdff3e00040037006168e10053
:10051000010032000086eb000b00070019c7ba008b
:100520001905ba000e04e00003003a000a00e000da
:10053000e0ff3a0000000600fe07b2009e018800be
:100540008a047800f5ff3700395dba008b05e900b1
:100550000c003200295dba008b05e900080032006a
:100560000c00e00003003a00e284440032a0b40032
:10057000f5ff370019ddba008b05e900faff3a00f4
:100580008904e800e184440032a0b40000000600c1
:10059000809fbe000000fa008460a9000021ef00e7
:1005a000704080000000e8007040880071408000ca
:1005b00080062000808f500001003400ffff3700cc
:1005c0000080fa004f00be0000400600801f780047
:1005d0003400f80000002000a00188000000fa00ac
:1005e000404080000000e800404088008440a900ae
:1005f0000080fa003400f9004f0078000040060047
:10060000801f78003400f80000002000a00188005e
:100610000000fa00504080000000e80050408800d0
:1006200084c0a9000080fa003400f9004f0078006f
:10063000004006003600f800809fbe00829fbe008a
:10064000849fbe00869fbe000000fa008660a9005d
:1006500007c8bf000004e0000e003a0051168000f9
:1006600000002100008060000000e0000200320075
:10067000ef0007000800370051168000000022003c
:10068000008060000000e00003003200e800070086
:1006900001003700000000000080fa004f03be0098
:1006a0004f02be004f01be004f00be003600f900f1
:1006b000004006000040da000000fe0000000500d7
:020000040000fa
:1006c0000000fa00c002a900e004a900c022a900ad
:1006d000e024a900c802a900c822a900c842a800b5
:1006e000e244a800c042a900e044a900e064a800d8
:1006f000c8e2a900c902a900c922a900c0c2a90074
:10070000c982a800e384a900c9a2a800e3a4a900a3
:10071000c9c2a900e3c4a900c9e2a900e3e4a90091
:100720000080fa00000006000000fa0005e1a800c1
:100730000421a900210880000003200001007000ae
:100740002008880090d02300100888000021ef00c6
:1007500021058000f0ff2800808060000000260056
:1007600001007000200588009460a8008460a90042
:100770000080fa00000006000000fa0011e1a80065
:100780001021a90081088000f0fc2f00008060008b
:100790000040a00080088800803e2000600888009b
:1007a0000621ef000080fa00000006000000fa00b9
:1007b000111a8000f0ff230000806000101a8800ea
:1007c00043a3a90030c0b30044e3b700011a80007e
:1007d000f0f02f0080806000000720000100700012
:1007e000001a88004043a800211a8000f00f2e0054
:1007f000808060000030200001007000201a880016
:100800004343a80051c3a8005083a8004143a80057
:10081000011a8000f0cf2f0000806000001a8800cd
:100820004363a800111a800030f82f000080600098
:100830000030a000101a880041e3a8000080fa00f0
:10084000000006000000fa00a421ef00a621ef003e
:1008500000232000500d8800f0702200400d880019
:10086000210d8000f03f2e0000806000200d8800e8
:10087000300d8000f001b300300d8800a6e1a90022
:10088000210d800080ff2f00008060006000b30019
:10089000200d88000080fa00000006000000fa0029
:1008a00063c0a8006ea0a90061058000f0ff2800c9
:1008b0008080600000002500010070006005880055
:1008c0009660a8008660a9000080fa00000006007b
:1008d0000000fa009021ef009221ef0060f9200063
:1008e000b00c880080a92300a00c8800810c800037
:1008f00000c0210001007000800c8800900c800076
:10090000f001b300900c880092e1a900810c8000f6
:1009100080ff2f00008060006000b300800c880022
:100920009440a8008440a900cde2a9000080fa000c
:10093000000006000000fa009a21ef009c21ef0061
:1009400060f92000000d880080a92300f00c8800c9
:10095000d10c800000c0210001007000d00c880084
:10096000e00c8000f001b300e00c88009ce1a900dd
:10097000d10c800080ff2f00008060006000b30079
:10098000d00c880094c0a80084c0a9000080fa00a0
:10099000000006000000fa00cde2a800cd02a80089
:1009a000cd22a8000080fa00000006000000fa0036
:1009b000cde2a80010c0b30006e8b700cd02a90040
:1009c000cd22a80006c8bf000004e000fdff3a00e9
:1009d0000080fa00000006000000fa00cce2a90046
:1009e00010c0b30007e8b700801a2600a00c8800ea
:1009f000cde2a80010c0b30006e8b700cd02a90000
:100a0000cd22a8000828ef0000000000414080002f
:100a1000700c2000808f5000fcff340080a9230060
:100a2000a00c88000768ef000080fa0000000600b4
:100a30000000fa000668ef00cde2a9000080fa008d
:100a4000000006000000fa00cde2a8000828ef0030
:100a5000cd02a800cd22a900000000004140800086
:100a6000b0408000808f5000fcff3500cde2a9002f
:100a70000080fa00000006000000fa00cce2a800a6
:100a8000c4ff070000000000a04080008000780044
:100a900040188000808f5000fbff3e00e4ff0700fd
:100aa0000080fa00000006000000fa00cde2a80075
:100ab0000828ef00cd02a800cd22a8000000000009
:100ac00041408000c0408000808f5000fcff350016
:100ad000cde2a9000080fa00000006000000fa0044
:100ae000cde2a8000828ef00cd02a800cd22a80082
:100af00000000000c0408000cf00de000080400009
:100b00000080d1008000780040408000808f50003d
:100b1000f8ff3c00cde2a9000080fa0000000600ca
:100b20000000fa00cde2a8000828ef00cd02a900dd
:100b3000cd22a90000000000c0408000cf00de00f0
:100b4000008040000080d10080007800404080009c
:100b5000808f5000f8ff3c00cde2a9000080fa0031
:100b6000000006000200fa00004f780070c7b300d2
:100b70009e40780080cf500009003a00802f20006e
:100b8000500d8800004080000000e8000040880010
:100b9000204080000000e800204088000c00370062
:100ba00020c6b3009e40780080cf500008003a0075
:100bb00000192000500d8800004080000000e8006f
:100bc00000408800104080000000e80010408800cd
:100bd00000a0260081012000f70007000080fa0035
:100be000000006000200fa00e0408000800078006b
:100bf000e0188000808f50000400310070c7b300ff
:100c0000004f78001e40780014003700d04080006c
:100c100080007800e0188000808f500004003100d0
:100c200020c6b300004f78001e4078000b0037004c
:100c3000e0c6b300004f7800cdc2a90000cc25006b
:100c400051012000dc000700cdc2a80000cc250027
:100c500051012000d8000700e3ff37000080fa00b0
:100c6000000006000000fa0050ff0700cde2a900d6
:100c7000c18020009140780020c6b30080cf500092
:100c800004003a0000192000500d88000228ef00ef
:100c900003003700802f2000500d88000428ef004b
:100ca000c002a8000a28ef00010037000000000081
:100cb00051408000e0242000808f5000fbff340072
:100cc000c402a90000202100a1072000ba000700eb
:100cd000c422a900c402a8000a28ef0001003700be
:100ce0000000000051408000e0242000808f500070
:100cf000fbff3400c402a900faff37000000fa002d
:100d000076ff070020408000e30f50002a003400e7
:100d100010408000e30f500027003400a040800006
:100d20008000780040188000808f500009003e004d
:100d300020c6b3000ce8b700caff070067ff070032
:100d400070c7b3000ce8b700c6ff070056ff0700e6
:100d50004a00370070c7b3000ce8b700c1ff0700b6
:100d60005eff0700a04080008000780040188000ef
:100d7000808f500005003e0020c6b3000ce8b7008d
:100d8000b8ff070048ff07003c00370053ff07008b
:100d9000a04080008000780040188000808f5000c4
:100da00003003e0020c6b3000ce8b700adff07000b
:100db0004aff07003100370020408000e30f500059
:100dc0001100340010408000e40f50000e003c0081
:100dd00070c7b3000ce8b700a04080008000780026
:100de00040188000808f5000030036009dff0700f0
:100df0004bff07002100370038ff070099ff07006d
:100e000029ff07001d00370020408000e40f50003c
:100e10001a003c0010408000e30f5000170034001f
:100e200020c6b3000ce8b700a04080008000780026
:100e300040188000808f500003003e0089ff0700ab
:100e400037ff07000d00370024ff0700a040800097
:100e50008000780040188000808f500003003e0022
:100e600080ff070010ff0700040037001bff07008a
:100e70007cff070019ff0700000000000080fa0057
:100e8000000006000000fa000dfe070026fe070025
:100e900039fe07008efe0700a6fe070069fe070068
:100ea0007efe070041fe070000482800e101200007
:100eb0004100070080408000e10f50000e0032002a
:100ec000e10f500005003900e20f50003000320001
:100ed000e30f500034003200f6ff3700e6fe070053
:100ee000b2fe0700bcfe0700d1fe07001000200084
:100ef000804088002f003700802f2000500d880090
:100f000000f82400210120002b0007000019200018
:100f1000500d880000f82400210120002600070061
:100f200000232000500d880000f82400210120003b
:100f3000210007000b003700cdc2a800c442a80062
:100f400028ff070007ff070000232000500d88003e
:100f5000cdc2a900c442a90000f82400210120004c
:100f6000150007002140800090408000808f5000d5
:100f700004003c001140800090408000808f5000b1
:100f8000edff340020002000804088000900370079
:100f9000acfe070059ff070084fe07001000200088
:100fa0008040880003003700c402a900cde2a900f8
:080fb000ffff3700bfff37000f
:020000040000fa
:100fb800f03fb1000180b10006003500ee030900e2
:100fc80000000000403fb1000180b100fbff3d0080
:100fd8001000b000203fb00002003500008009007a
:080fe8000000000000000600fb
:020000040000fa
:100ff00000080000120000000000000012080000bd
:101000000c0000000200000008009200091202001b
:0c10100054016c0002740e00000000008f
:020000040000fa
:0200000401f009
:04000c00f8ff0000f9
:020000040000fa
:0200000401f009
:04001000fbff0000f2
:020000040000fa
:0200000401f009
:04001c00fdff0000e4
:00000001FF
