:020000040000fa
:080000000002040000000000f2
:020000040000fa
:040008007803000079
:020000040000fa
:04000c007803000075
:020000040000fa
:040010007803000071
:020000040000fa
:04001400780300006d
:020000040000fa
:040018007803000069
:020000040000fa
:04001c007803000065
:020000040000fa
:040020007803000061
:020000040000fa
:04002400780300005d
:020000040000fa
:040028007803000059
:020000040000fa
:04002c007803000055
:020000040000fa
:04003000c802000002
:020000040000fa
:04003400780300004d
:020000040000fa
:040038007803000049
:020000040000fa
:04003c007803000045
:020000040000fa
:040040005e0300005b
:020000040000fa
:040044003e03000077
:020000040000fa
:040048007803000039
:020000040000fa
:04004c007803000035
:020000040000fa
:040050007803000031
:020000040000fa
:04005400780300002d
:020000040000fa
:040058007803000029
:020000040000fa
:04005c007803000025
:020000040000fa
:040060007803000021
:020000040000fa
:04006400780300001d
:020000040000fa
:040068007803000019
:020000040000fa
:04006c007803000015
:020000040000fa
:040070007803000011
:020000040000fa
:04007400080300007d
:020000040000fa
:040078007803000009
:020000040000fa
:04007c007803000005
:020000040000fa
:040080007803000001
:020000040000fa
:0400840078030000fd
:020000040000fa
:0400880078030000f9
:020000040000fa
:04008c0078030000f5
:020000040000fa
:0400900078030000f1
:020000040000fa
:0400940078030000ed
:020000040000fa
:0400980078030000e9
:020000040000fa
:04009c0078030000e5
:020000040000fa
:0400a00078030000e1
:020000040000fa
:0400a40078030000dd
:020000040000fa
:0400a80078030000d9
:020000040000fa
:0400ac0078030000d5
:020000040000fa
:0400b00078030000d1
:020000040000fa
:0400b40078030000cd
:020000040000fa
:0400b80078030000c9
:020000040000fa
:0400bc0078030000c5
:020000040000fa
:0400c00078030000c1
:020000040000fa
:0400c40078030000bd
:020000040000fa
:0400c80078030000b9
:020000040000fa
:0400cc0078030000b5
:020000040000fa
:0400d00078030000b1
:020000040000fa
:0400d40078030000ad
:020000040000fa
:0400d80078030000a9
:020000040000fa
:0400dc0078030000a5
:020000040000fa
:0400e00078030000a1
:020000040000fa
:0400e400780300009d
:020000040000fa
:0400e8007803000099
:020000040000fa
:0400ec007803000095
:020000040000fa
:0400f0007803000091
:020000040000fa
:0400f400780300008d
:020000040000fa
:0400f8007803000089
:020000040000fa
:0400fc007803000085
:020000040000fa
:040100007803000080
:020000040000fa
:04010400780300007c
:020000040000fa
:040108007803000078
:020000040000fa
:04010c007803000074
:020000040000fa
:040110007803000070
:020000040000fa
:04011400780300006c
:020000040000fa
:040118007803000068
:020000040000fa
:04011c007803000064
:020000040000fa
:040120007803000060
:020000040000fa
:04012400780300005c
:020000040000fa
:040128007803000058
:020000040000fa
:04012c007803000054
:020000040000fa
:040130007803000050
:020000040000fa
:04013400780300004c
:020000040000fa
:040138007803000048
:020000040000fa
:04013c007803000044
:020000040000fa
:040140007803000040
:020000040000fa
:04014400780300003c
:020000040000fa
:040148007803000038
:020000040000fa
:04014c007803000034
:020000040000fa
:040150007803000030
:020000040000fa
:04015400780300002c
:020000040000fa
:040158007803000028
:020000040000fa
:04015c007803000024
:020000040000fa
:040160007803000020
:020000040000fa
:04016400780300001c
:020000040000fa
:040168007803000018
:020000040000fa
:040208007803000077
:020000040000fa
:04020c007803000073
:020000040000fa
:04021000780300006f
:020000040000fa
:04021400780300006b
:020000040000fa
:040218007803000067
:020000040000fa
:04021c007803000063
:020000040000fa
:04022000780300005f
:020000040000fa
:04022400780300005b
:020000040000fa
:040228007803000057
:020000040000fa
:04022c007803000053
:020000040000fa
:04023000780300004f
:020000040000fa
:04023400780300004b
:020000040000fa
:040238007803000047
:020000040000fa
:04023c007803000043
:020000040000fa
:04024000780300003f
:020000040000fa
:04024400780300003b
:020000040000fa
:040248007803000037
:020000040000fa
:04024c007803000033
:020000040000fa
:04025000780300002f
:020000040000fa
:04025400780300002b
:020000040000fa
:040258007803000027
:020000040000fa
:04025c007803000023
:020000040000fa
:04026000780300001f
:020000040000fa
:04026400780300001b
:020000040000fa
:040268007803000017
:020000040000fa
:04026c007803000013
:020000040000fa
:04027000780300000f
:020000040000fa
:04027400780300000b
:020000040000fa
:040278007803000007
:020000040000fa
:04027c007803000003
:020000040000fa
:0402800078030000ff
:020000040000fa
:0402840078030000fb
:020000040000fa
:0402880078030000f7
:020000040000fa
:04028c0078030000f3
:020000040000fa
:0402900078030000ef
:020000040000fa
:0402940078030000eb
:020000040000fa
:0402980078030000e7
:020000040000fa
:04029c0078030000e3
:020000040000fa
:0402a00078030000df
:020000040000fa
:0402a40078030000db
:020000040000fa
:0402a80078030000d7
:020000040000fa
:0402ac0078030000d3
:020000040000fa
:0402b00078030000cf
:020000040000fa
:0402b40078030000cb
:020000040000fa
:0402b80078030000c7
:020000040000fa
:0402bc0078030000c3
:020000040000fa
:0402c00078030000bf
:020000040000fa
:0402c40078030000bb
:020000040000fa
:0402c80078030000b7
:020000040000fa
:0402cc0078030000b3
:020000040000fa
:0402d00078030000af
:020000040000fa
:0402d40078030000ab
:020000040000fa
:0402d80078030000a7
:020000040000fa
:0402dc0078030000a3
:020000040000fa
:0402e000780300009f
:020000040000fa
:0402e400780300009b
:020000040000fa
:0402e8007803000097
:020000040000fa
:0402ec007803000093
:020000040000fa
:0402f000780300008f
:020000040000fa
:0402f400780300008b
:020000040000fa
:0402f8007803000087
:020000040000fa
:0402fc007803000083
:020000040000fa
:04030000780300007e
:020000040000fa
:04030400780300007a
:020000040000fa
:040308007803000076
:020000040000fa
:04030c007803000072
:020000040000fa
:04031000780300006e
:020000040000fa
:04031400780300006a
:020000040000fa
:040318007803000066
:020000040000fa
:04031c007803000062
:020000040000fa
:04032000780300005e
:020000040000fa
:04032400780300005a
:020000040000fa
:040328007803000056
:020000040000fa
:04032c007803000052
:020000040000fa
:04033000780300004e
:020000040000fa
:04033400780300004a
:020000040000fa
:040338007803000046
:020000040000fa
:04033c007803000042
:020000040000fa
:04034000780300003e
:020000040000fa
:04034400780300003a
:020000040000fa
:040348007803000036
:020000040000fa
:04034c007803000032
:020000040000fa
:04035000780300002e
:020000040000fa
:04035400780300002a
:020000040000fa
:040358007803000026
:020000040000fa
:04035c007803000022
:020000040000fa
:04036000780300001e
:020000040000fa
:04036400780300001a
:020000040000fa
:040368007803000016
:020000040000fa
:100400008f8020000eff20000e01880000000000f9
:10041000000020000000e000020032000001200087
:100420002002880014000700b30007000000e0006d
:1004300003003a004058200001002000020037006d
:100440000000200001002000810f70000100320038
:1004500014000700000020000000e000020032004d
:1004600000000200000000004e0502000000000035
:100470000040da000000fe004440a9000000200017
:100480000000e0000300320000002000a00188000e
:100490004440a800000006008a1f78008b1f7800e7
:1004a0000000060091018800800478000000eb0045
:1004b0001a003700e284440032a0b4009905ba0063
:1004c000e284440032a0b4009906ba00e2844400f9
:1004d00032a0b4000006eb00476fde00fd07b2005b
:1004e000636ce10003003a00ebff07000000eb0043
:1004f0000a003700606ce10004003a00005deb0088
:100500008b05e900fdff3e00040037006168e10053
:10051000010032000086eb000b00070019c7ba008b
:100520001905ba000e04e00003003a000a00e000da
:10053000e0ff3a0000000600fe07b2009e018800be
:100540008a047800f5ff3700395dba008b05e900b1
:100550000c003200295dba008b05e900080032006a
:100560000c00e00003003a00e284440032a0b40032
:10057000f5ff370019ddba008b05e900faff3a00f4
:100580008904e800e184440032a0b40000000600c1
:100590003600f800809fbe00829fbe00849fbe0090
:1005a000869fbe003400f80000002000a0018800f3
:1005b0000000fa00004080000000e80000408800d1
:1005c0000140800080252000808f5000070034000b
:1005d000204080000000e00004003a0061000700b5
:1005e00010002000104088000028ef008440a9007f
:1005f0000080fa003400f9004f03be004f02be0035
:100600004f01be004f00be003600f900004006005a
:100610003600f800809fbe00829fbe00849fbe000f
:10062000869fbe000000fa008660a9005116800077
:1006300000002100008060000000e00002003200a5
:100640004800070006003700511680000000220015
:10065000008060000000e00001003200410007005f
:100660000080fa004f03be004f02be004f01be00e3
:100670004f00be003600f90000400600809fbe001b
:100680000000fa0084e0a9000621ef00510d80006f
:1006900040062000808f500003003e000032200002
:1006a000500d88000200370040062000500d8800e1
:1006b0000080fa004f00be0000400600801f780056
:1006c0003400f80000002000a00188000000fa00bb
:1006d000004080000000e8000040880084c0a900bd
:1006e0000080fa003400f9004f0078000040060056
:0c06f0000040da000000fe0000000500e1
:020000040000fa
:1006fc000000fa00c002a900e004a900c022a90071
:10070c00e024a900c802a900c822a900c842a80078
:10071c00e244a800c042a900e044a900e064a8009b
:10072c00c8e2a900c902a900c922a900c0c2a90037
:10073c00c982a800e384a900c9a2a800e3a4a90067
:10074c00c9c2a900e3c4a900c9e2a900e3e4a90055
:10075c000080fa00000006000000fa009621ef006d
:10076c000080fa00000006000000fa0060f920008a
:10077c00b00c8800cd02a900cd22a8000080fa00a0
:10078c00000006000000fa0060f92000b00c8800a0
:10079c00cd02a800cd22a8000080fa0000000600bf
:1007ac000000fa00f7ff0700000000003040800056
:1007bc0080007800e0188000808f5000fbff3e0026
:1007cc00e5ff0700e8ff07000080fa0000000600c4
:1007dc000000fa009021ef009221ef0060f9200058
:1007ec00b00c880080a92300a00c8800810c80002c
:1007fc0000c0210001007000800c8800900c80006b
:10080c00f001b300900c880092e1a900810c8000eb
:10081c0080ff2f00008060006000b300800c880017
:10082c009440a8000080fa00000006000000fa00c6
:10083c0062a0a8006ea0a90061058000f0ff28004e
:10084c0080806000000026000100700060058800b8
:10085c009660a8008660a9000080fa0000000600df
:10086c000000fa00111a8000f0ff230000806000e5
:10087c00101a880043a3a90030c0b30044e3b700aa
:10088c00011a8000f0f02f0080806000000720002b
:10089c0001007000001a88004043a800211a800053
:1008ac00f00f2e00808060000030200001007000ee
:1008bc00201a88004343a80051c3a8004143a80054
:1008cc00011a8000f0cf2f0000806000001a880011
:1008dc004363a800111a800030f82f0000806000dc
:1008ec000020a000101a880041e3a8000080fa0044
:1008fc00000006000200fa00111a8000f0ff23002d
:10090c0000806000101a880043a3a90030c0b30017
:10091c0044e3b700011a8000f0f02f0080806000e3
:10092c000007200001007000001a88004043a80056
:10093c00211a8000f00f2e00008060000080a000c3
:10094c00201a88004343a80051c3a8004143a800c3
:10095c00011a8000f0cf2f0000806000001a880080
:10096c004363a800111a800030f82f00008060004b
:10097c000020a000101a880041e3a800804d200040
:10098c00000f78009e007800e0188000808f5000e7
:10099c0002003100c442a800faff3700c442a9008b
:1009ac00f8ff37000000fa0011e1a8001021a9009f
:1009bc0081088000f0fc2f00008060000040a00047
:1009cc0080088800b0092000600888000621ef002c
:1009dc000080fa00000006000000fa00a421ef00dd
:1009ec00a621ef0000232000500d8800f07022009b
:1009fc00400d8800210d8000f03f2e00008060002b
:100a0c00200d8800300d8000f001b300300d8800ff
:100a1c00a6e1a900210d800080ff2f00008060005e
:100a2c006000b300200d88000080fa000000060072
:100a3c000000fa009a21ef009c21ef0060f92000e1
:100a4c00000d880080a92300f00c8800d10c8000d8
:100a5c0000c0210001007000d00c8800e00c800068
:100a6c00f001b300e00c88009ce1a900d10c8000df
:100a7c0080ff2f00008060006000b300d00c880065
:100a8c0094c0a80084c0a9000080fa0000000600f1
:100a9c000000fa0016ff0700e5ff0700c402a800db
:100aac00c422a800010037000000000001408000b3
:100abc00e0152000808f5000fbff3400c402a90019
:100acc00101680000000d1006140600011c0b3001e
:100adc0000c05000614060000080fb0061006000bd
:100aec000000400022168000d1ff2f008100610021
:0c0afc000100700020168800ecff37009d
:020000040000fa
:100b080000080000060000000000000006080000c1
:100b18000200000002000000b80b00000000000006
:020000040000fa
:0200000401f009
:04000c00f8ff0000f9
:020000040000fa
:0200000401f009
:04001c00fdff0000e4
:00000001FF
