:020000040000fa
:080000000002040000000000f2
:020000040000fa
:04000800fe020000f4
:020000040000fa
:04000c00fe020000f0
:020000040000fa
:04001000fe020000ec
:020000040000fa
:04001400fe020000e8
:020000040000fa
:04001800fe020000e4
:020000040000fa
:04001c00fe020000e0
:020000040000fa
:04002000fe020000dc
:020000040000fa
:04002400fe020000d8
:020000040000fa
:04002800fe020000d4
:020000040000fa
:04002c00fe020000d0
:020000040000fa
:04003000fe020000cc
:020000040000fa
:04003400fe020000c8
:020000040000fa
:04003800fe020000c4
:020000040000fa
:04003c00fe020000c0
:020000040000fa
:04004000fe020000bc
:020000040000fa
:04004400fe020000b8
:020000040000fa
:04004800fe020000b4
:020000040000fa
:04004c00fe020000b0
:020000040000fa
:04005000fe020000ac
:020000040000fa
:04005400fe020000a8
:020000040000fa
:04005800fe020000a4
:020000040000fa
:04005c00fe020000a0
:020000040000fa
:04006000fe0200009c
:020000040000fa
:04006400fe02000098
:020000040000fa
:04006800fe02000094
:020000040000fa
:04006c00fe02000090
:020000040000fa
:04007000fe0200008c
:020000040000fa
:04007400c8020000be
:020000040000fa
:04007800fe02000084
:020000040000fa
:04007c00fe02000080
:020000040000fa
:04008000fe0200007c
:020000040000fa
:04008400fe02000078
:020000040000fa
:04008800fe02000074
:020000040000fa
:04008c00fe02000070
:020000040000fa
:04009000fe0200006c
:020000040000fa
:04009400fe02000068
:020000040000fa
:04009800fe02000064
:020000040000fa
:04009c00fe02000060
:020000040000fa
:0400a000fe0200005c
:020000040000fa
:0400a400fe02000058
:020000040000fa
:0400a800fe02000054
:020000040000fa
:0400ac00fe02000050
:020000040000fa
:0400b000fe0200004c
:020000040000fa
:0400b400fe02000048
:020000040000fa
:0400b800fe02000044
:020000040000fa
:0400bc00fe02000040
:020000040000fa
:0400c000fe0200003c
:020000040000fa
:0400c400fe02000038
:020000040000fa
:0400c800fe02000034
:020000040000fa
:0400cc00fe02000030
:020000040000fa
:0400d000fe0200002c
:020000040000fa
:0400d400fe02000028
:020000040000fa
:0400d800fe02000024
:020000040000fa
:0400dc00fe02000020
:020000040000fa
:0400e000fe0200001c
:020000040000fa
:0400e400fe02000018
:020000040000fa
:0400e800fe02000014
:020000040000fa
:0400ec00fe02000010
:020000040000fa
:0400f000fe0200000c
:020000040000fa
:0400f400fe02000008
:020000040000fa
:0400f800fe02000004
:020000040000fa
:0400fc00fe02000000
:020000040000fa
:04010000fe020000fb
:020000040000fa
:04010400fe020000f7
:020000040000fa
:04010800fe020000f3
:020000040000fa
:04010c00fe020000ef
:020000040000fa
:04011000fe020000eb
:020000040000fa
:04011400fe020000e7
:020000040000fa
:04011800fe020000e3
:020000040000fa
:04011c00fe020000df
:020000040000fa
:04012000fe020000db
:020000040000fa
:04012400fe020000d7
:020000040000fa
:04012800fe020000d3
:020000040000fa
:04012c00fe020000cf
:020000040000fa
:04013000fe020000cb
:020000040000fa
:04013400fe020000c7
:020000040000fa
:04013800fe020000c3
:020000040000fa
:04013c00fe020000bf
:020000040000fa
:04014000fe020000bb
:020000040000fa
:04014400fe020000b7
:020000040000fa
:04014800fe020000b3
:020000040000fa
:04014c00fe020000af
:020000040000fa
:04015000fe020000ab
:020000040000fa
:04015400fe020000a7
:020000040000fa
:04015800fe020000a3
:020000040000fa
:04015c00fe0200009f
:020000040000fa
:04016000fe0200009b
:020000040000fa
:04016400fe02000097
:020000040000fa
:04016800fe02000093
:020000040000fa
:04020800fe020000f2
:020000040000fa
:04020c00fe020000ee
:020000040000fa
:04021000fe020000ea
:020000040000fa
:04021400fe020000e6
:020000040000fa
:04021800fe020000e2
:020000040000fa
:04021c00fe020000de
:020000040000fa
:04022000fe020000da
:020000040000fa
:04022400fe020000d6
:020000040000fa
:04022800fe020000d2
:020000040000fa
:04022c00fe020000ce
:020000040000fa
:04023000fe020000ca
:020000040000fa
:04023400fe020000c6
:020000040000fa
:04023800fe020000c2
:020000040000fa
:04023c00fe020000be
:020000040000fa
:04024000fe020000ba
:020000040000fa
:04024400fe020000b6
:020000040000fa
:04024800fe020000b2
:020000040000fa
:04024c00fe020000ae
:020000040000fa
:04025000fe020000aa
:020000040000fa
:04025400fe020000a6
:020000040000fa
:04025800fe020000a2
:020000040000fa
:04025c00fe0200009e
:020000040000fa
:04026000fe0200009a
:020000040000fa
:04026400fe02000096
:020000040000fa
:04026800fe02000092
:020000040000fa
:04026c00fe0200008e
:020000040000fa
:04027000fe0200008a
:020000040000fa
:04027400fe02000086
:020000040000fa
:04027800fe02000082
:020000040000fa
:04027c00fe0200007e
:020000040000fa
:04028000fe0200007a
:020000040000fa
:04028400fe02000076
:020000040000fa
:04028800fe02000072
:020000040000fa
:04028c00fe0200006e
:020000040000fa
:04029000fe0200006a
:020000040000fa
:04029400fe02000066
:020000040000fa
:04029800fe02000062
:020000040000fa
:04029c00fe0200005e
:020000040000fa
:0402a000fe0200005a
:020000040000fa
:0402a400fe02000056
:020000040000fa
:0402a800fe02000052
:020000040000fa
:0402ac00fe0200004e
:020000040000fa
:0402b000fe0200004a
:020000040000fa
:0402b400fe02000046
:020000040000fa
:0402b800fe02000042
:020000040000fa
:0402bc00fe0200003e
:020000040000fa
:0402c000fe0200003a
:020000040000fa
:0402c400fe02000036
:020000040000fa
:0402c800fe02000032
:020000040000fa
:0402cc00fe0200002e
:020000040000fa
:0402d000fe0200002a
:020000040000fa
:0402d400fe02000026
:020000040000fa
:0402d800fe02000022
:020000040000fa
:0402dc00fe0200001e
:020000040000fa
:0402e000fe0200001a
:020000040000fa
:0402e400fe02000016
:020000040000fa
:0402e800fe02000012
:020000040000fa
:0402ec00fe0200000e
:020000040000fa
:0402f000fe0200000a
:020000040000fa
:0402f400fe02000006
:020000040000fa
:0402f800fe02000002
:020000040000fa
:0402fc00fe020000fe
:020000040000fa
:04030000fe020000f9
:020000040000fa
:04030400fe020000f5
:020000040000fa
:04030800fe020000f1
:020000040000fa
:04030c00fe020000ed
:020000040000fa
:04031000fe020000e9
:020000040000fa
:04031400fe020000e5
:020000040000fa
:04031800fe020000e1
:020000040000fa
:04031c00fe020000dd
:020000040000fa
:04032000fe020000d9
:020000040000fa
:04032400fe020000d5
:020000040000fa
:04032800fe020000d1
:020000040000fa
:04032c00fe020000cd
:020000040000fa
:04033000fe020000c9
:020000040000fa
:04033400fe020000c5
:020000040000fa
:04033800fe020000c1
:020000040000fa
:04033c00fe020000bd
:020000040000fa
:04034000fe020000b9
:020000040000fa
:04034400fe020000b5
:020000040000fa
:04034800fe020000b1
:020000040000fa
:04034c00fe020000ad
:020000040000fa
:04035000fe020000a9
:020000040000fa
:04035400fe020000a5
:020000040000fa
:04035800fe020000a1
:020000040000fa
:04035c00fe0200009d
:020000040000fa
:04036000fe02000099
:020000040000fa
:04036400fe02000095
:020000040000fa
:04036800fe02000091
:020000040000fa
:100400008f8020000eff20000e01880000000000f9
:10041000000020000000e000020032000001200087
:100420002002880014000700760007000000e000aa
:1004300003003a0060532000010020000200370052
:100440000000200001002000810f70000100320038
:1004500014000700000020000000e000020032004d
:100460000000020000000000ec0402000000000098
:100470000040da000000fe004440a9000000200017
:100480000000e0000300320000002000a00188000e
:100490004440a800000006008a1f78008b1f7800e7
:1004a0000000060091018800800478000000eb0045
:1004b0001a003700e284440032a0b4009905ba0063
:1004c000e284440032a0b4009906ba00e2844400f9
:1004d00032a0b4000006eb00476fde00fd07b2005b
:1004e000636ce10003003a00ebff07000000eb0043
:1004f0000a003700606ce10004003a00005deb0088
:100500008b05e900fdff3e00040037006168e10053
:10051000010032000086eb000b00070019c7ba008b
:100520001905ba000e04e00003003a000a00e000da
:10053000e0ff3a0000000600fe07b2009e018800be
:100540008a047800f5ff3700395dba008b05e900b1
:100550000c003200295dba008b05e900080032006a
:100560000c00e00003003a00e284440032a0b40032
:10057000f5ff370019ddba008b05e900faff3a00f4
:100580008904e800e184440032a0b40000000600c1
:100590003600f800809fbe00829fbe00849fbe0090
:1005a000869fbe000000fa008660a90051168000f8
:1005b00000002100008060000000e0000200320026
:1005c000bd00070006003700511680000000220021
:1005d000008060000000e00001003200b60007006b
:1005e0000080fa004f03be004f02be004f01be0064
:1005f0004f00be003600f900004006000040da005f
:080600000000fe0000000500ef
:020000040000fa
:100608000000fa0011e1a8001021a900810880006b
:10061800000320000100700080088800803e200050
:10062800600888000621ef000080fa00000006003c
:100638000000fa0005e1a8000421a90021088000b3
:1006480000032000010070002008880090d02300db
:10065800100888000021ef0021058000f0ff280025
:100668000080600000e0a000200588009460a800d9
:100678008460a9000080fa00000006000000fa006b
:10068800111a8000f0ff230000806000101a880013
:1006980043a3a90030c0b30044e3b700011a8000a7
:1006a800f0f02f008080600000072000010070003b
:1006b800001a88004043a800211a8000f00f2e007d
:1006c800808060000030200001007000201a88003f
:1006d8004343a80051c3a8004143a800011a800061
:1006e800f0cf2f0000806000001a88004363a80044
:1006f800111a800030f82f00008060000030a00040
:10070800101a880041e3a8000080fa0000000600e3
:100718000000fa0062a0a8006ea0a9006105800090
:10072800f0ff2800808060000000260001007000b3
:10073800600588009660a8008660a9000080fa001d
:10074800000006000000fa00c002a900e004a900a9
:10075800c022a900e024a900c802a900c822a90053
:10076800c842a800e244a800c042a900e044a90089
:10077800e064a800c8e2a900c902a900c922a9002a
:10078800c0c2a900c982a800e384a900c9a2a80020
:10079800e3a4a900c9c2a900e3c4a900c9e2a90049
:1007a800e3e4a9000080fa00000006000000fa0057
:1007b800a421ef00a621ef0000232000500d88009f
:1007c800f0702200400d8800210d8000f03f2e00bf
:1007d80000806000200d8800300d8000f001b3001b
:1007e800300d8800a6e1a900210d800080ff2f00b0
:1007f800008060006000b300200d88000080fa00cf
:10080800000006000000fa009021ef009221ef009e
:1008180060f92000b00c880080a92300a00c880093
:10082800810c800000c0210001007000800c88004d
:10083800900c8000f001b300900c880092e1a900b0
:10084800810c800080ff2f00008060006000b300f2
:10085800800c88009440a800cde2a9000080fa002e
:10086800000006000000fa0010c0b30002e8b7005c
:10087800cde2a800cd02a800cda2a90002c8bf0001
:100888000004e000fdff3a000080fa0000000600c6
:100898000000fa0010c0b30002e8b700cde2a800db
:1008a800cd02a800cda2a8000080fa000000060032
:1008b8000000fa000268ef00cde2a9000080fa000b
:1008c800000006000000fa000100370000000000e8
:1008d80021408000401f2000808f5000fbff340023
:1008e800cda2a900faff37000000fa00e8ff0700d0
:1008f800000000003040800080007800e018800090
:10090800808f5000fbff3e00e9ff0700d5ff07007e
:100918000080fa00000006000200fa00004f78008c
:1009280020c6b3009e40780080cf500006003a00f1
:1009380000192000500d8800004080000000e800e9
:10094800004088000c00370070c7b3009e40780054
:1009580080cf500006003a00c02b2000500d8800c0
:10096800004080000000e8000040880002003700d6
:1009780000232000500d88000080fa0000000600c7
:100988000200fa00e118800040e72000808f500044
:100998000300360070c7b300004f78000900370025
:1009a800e1188000406a2000808f50000300360064
:1009b80020c6b300004f780002003700e0c6b3003d
:1009c800004f78001e4078000080fa000000060002
:1009d8000200fa005bff070074ff070027ff07000b
:1009e80007ff07000000eb00000f78001e007800ea
:1009f800e10f500009003200e10f500003003900f8
:100a0800e20f50001300320015003700b6ff070050
:100a180010002000000f780011003700c442a80021
:100a280006003700cdc2a800d5ff0700baff0700af
:100a3800cdc2a90000232000500d8800004080008e
:100a4800e30f5000f7ff340020002000000f78006b
:100a5800030037000000eb000080fa0000000600e9
:040a6800e2ff370072
:020000040000fa
:100a6c00000800000600000000000000060800005e
:100a7c000200000002000000b80b000000000000a3
:020000040000fa
:0200000401f009
:04000c00f8ff0000f9
:00000001FF
