:020000040000fa
:080000000002040000000000f2
:020000040000fa
:0400080038030000b9
:020000040000fa
:04000c0038030000b5
:020000040000fa
:0400100038030000b1
:020000040000fa
:0400140038030000ad
:020000040000fa
:0400180038030000a9
:020000040000fa
:04001c0038030000a5
:020000040000fa
:0400200038030000a1
:020000040000fa
:04002400380300009d
:020000040000fa
:040028003803000099
:020000040000fa
:04002c003803000095
:020000040000fa
:04003000c802000002
:020000040000fa
:04003400380300008d
:020000040000fa
:040038003803000089
:020000040000fa
:04003c003803000085
:020000040000fa
:04004000e2020000d8
:020000040000fa
:04004400380300007d
:020000040000fa
:040048003803000079
:020000040000fa
:04004c003803000075
:020000040000fa
:040050003803000071
:020000040000fa
:04005400380300006d
:020000040000fa
:040058003803000069
:020000040000fa
:04005c003803000065
:020000040000fa
:040060003803000061
:020000040000fa
:04006400380300005d
:020000040000fa
:040068003803000059
:020000040000fa
:04006c003803000055
:020000040000fa
:040070003803000051
:020000040000fa
:04007400fc0200008a
:020000040000fa
:040078003803000049
:020000040000fa
:04007c003803000045
:020000040000fa
:040080003803000041
:020000040000fa
:04008400380300003d
:020000040000fa
:040088003803000039
:020000040000fa
:04008c003803000035
:020000040000fa
:040090003803000031
:020000040000fa
:04009400380300002d
:020000040000fa
:040098003803000029
:020000040000fa
:04009c003803000025
:020000040000fa
:0400a0003803000021
:020000040000fa
:0400a400380300001d
:020000040000fa
:0400a8003803000019
:020000040000fa
:0400ac003803000015
:020000040000fa
:0400b0003803000011
:020000040000fa
:0400b400380300000d
:020000040000fa
:0400b8003803000009
:020000040000fa
:0400bc003803000005
:020000040000fa
:0400c0003803000001
:020000040000fa
:0400c40038030000fd
:020000040000fa
:0400c80038030000f9
:020000040000fa
:0400cc0038030000f5
:020000040000fa
:0400d00038030000f1
:020000040000fa
:0400d40038030000ed
:020000040000fa
:0400d80038030000e9
:020000040000fa
:0400dc0038030000e5
:020000040000fa
:0400e00038030000e1
:020000040000fa
:0400e40038030000dd
:020000040000fa
:0400e80038030000d9
:020000040000fa
:0400ec0038030000d5
:020000040000fa
:0400f00038030000d1
:020000040000fa
:0400f40038030000cd
:020000040000fa
:0400f80038030000c9
:020000040000fa
:0400fc0038030000c5
:020000040000fa
:0401000038030000c0
:020000040000fa
:0401040038030000bc
:020000040000fa
:0401080038030000b8
:020000040000fa
:04010c0038030000b4
:020000040000fa
:0401100038030000b0
:020000040000fa
:0401140038030000ac
:020000040000fa
:0401180038030000a8
:020000040000fa
:04011c0038030000a4
:020000040000fa
:0401200038030000a0
:020000040000fa
:04012400380300009c
:020000040000fa
:040128003803000098
:020000040000fa
:04012c003803000094
:020000040000fa
:040130003803000090
:020000040000fa
:04013400380300008c
:020000040000fa
:040138003803000088
:020000040000fa
:04013c003803000084
:020000040000fa
:040140003803000080
:020000040000fa
:04014400380300007c
:020000040000fa
:040148003803000078
:020000040000fa
:04014c003803000074
:020000040000fa
:040150003803000070
:020000040000fa
:04015400380300006c
:020000040000fa
:040158003803000068
:020000040000fa
:04015c003803000064
:020000040000fa
:040160003803000060
:020000040000fa
:04016400380300005c
:020000040000fa
:040168003803000058
:020000040000fa
:0402080038030000b7
:020000040000fa
:04020c0038030000b3
:020000040000fa
:0402100038030000af
:020000040000fa
:0402140038030000ab
:020000040000fa
:0402180038030000a7
:020000040000fa
:04021c0038030000a3
:020000040000fa
:04022000380300009f
:020000040000fa
:04022400380300009b
:020000040000fa
:040228003803000097
:020000040000fa
:04022c003803000093
:020000040000fa
:04023000380300008f
:020000040000fa
:04023400380300008b
:020000040000fa
:040238003803000087
:020000040000fa
:04023c003803000083
:020000040000fa
:04024000380300007f
:020000040000fa
:04024400380300007b
:020000040000fa
:040248003803000077
:020000040000fa
:04024c003803000073
:020000040000fa
:04025000380300006f
:020000040000fa
:04025400380300006b
:020000040000fa
:040258003803000067
:020000040000fa
:04025c003803000063
:020000040000fa
:04026000380300005f
:020000040000fa
:04026400380300005b
:020000040000fa
:040268003803000057
:020000040000fa
:04026c003803000053
:020000040000fa
:04027000380300004f
:020000040000fa
:04027400380300004b
:020000040000fa
:040278003803000047
:020000040000fa
:04027c003803000043
:020000040000fa
:04028000380300003f
:020000040000fa
:04028400380300003b
:020000040000fa
:040288003803000037
:020000040000fa
:04028c003803000033
:020000040000fa
:04029000380300002f
:020000040000fa
:04029400380300002b
:020000040000fa
:040298003803000027
:020000040000fa
:04029c003803000023
:020000040000fa
:0402a000380300001f
:020000040000fa
:0402a400380300001b
:020000040000fa
:0402a8003803000017
:020000040000fa
:0402ac003803000013
:020000040000fa
:0402b000380300000f
:020000040000fa
:0402b400380300000b
:020000040000fa
:0402b8003803000007
:020000040000fa
:0402bc003803000003
:020000040000fa
:0402c00038030000ff
:020000040000fa
:0402c40038030000fb
:020000040000fa
:0402c80038030000f7
:020000040000fa
:0402cc0038030000f3
:020000040000fa
:0402d00038030000ef
:020000040000fa
:0402d40038030000eb
:020000040000fa
:0402d80038030000e7
:020000040000fa
:0402dc0038030000e3
:020000040000fa
:0402e00038030000df
:020000040000fa
:0402e40038030000db
:020000040000fa
:0402e80038030000d7
:020000040000fa
:0402ec0038030000d3
:020000040000fa
:0402f00038030000cf
:020000040000fa
:0402f40038030000cb
:020000040000fa
:0402f80038030000c7
:020000040000fa
:0402fc0038030000c3
:020000040000fa
:0403000038030000be
:020000040000fa
:0403040038030000ba
:020000040000fa
:0403080038030000b6
:020000040000fa
:04030c0038030000b2
:020000040000fa
:0403100038030000ae
:020000040000fa
:0403140038030000aa
:020000040000fa
:0403180038030000a6
:020000040000fa
:04031c0038030000a2
:020000040000fa
:04032000380300009e
:020000040000fa
:04032400380300009a
:020000040000fa
:040328003803000096
:020000040000fa
:04032c003803000092
:020000040000fa
:04033000380300008e
:020000040000fa
:04033400380300008a
:020000040000fa
:040338003803000086
:020000040000fa
:04033c003803000082
:020000040000fa
:04034000380300007e
:020000040000fa
:04034400380300007a
:020000040000fa
:040348003803000076
:020000040000fa
:04034c003803000072
:020000040000fa
:04035000380300006e
:020000040000fa
:04035400380300006a
:020000040000fa
:040358003803000066
:020000040000fa
:04035c003803000062
:020000040000fa
:04036000380300005e
:020000040000fa
:04036400380300005a
:020000040000fa
:040368003803000056
:020000040000fa
:10040000ef8020000eff20000e0188000000000099
:10041000000020000000e000020032000001200087
:100420002002880014000700930007000000e0008d
:1004300003003a00006020000100200002003700a5
:100440000000200001002000810f70000100320038
:1004500014000700000020000000e000020032004d
:1004600000000200000000008605020000000000fd
:100470000040da000000fe004440a9000000200017
:100480000000e0000300320000002000a00188000e
:100490004440a800000006008a1f78008b1f7800e7
:1004a0000000060091018800800478000000eb0045
:1004b0001a003700e284440032a0b4009905ba0063
:1004c000e284440032a0b4009906ba00e2844400f9
:1004d00032a0b4000006eb00476fde00fd07b2005b
:1004e000636ce10003003a00ebff07000000eb0043
:1004f0000a003700606ce10004003a00005deb0088
:100500008b05e900fdff3e00040037006168e10053
:10051000010032000086eb000b00070019c7ba008b
:100520001905ba000e04e00003003a000a00e000da
:10053000e0ff3a0000000600fe07b2009e018800be
:100540008a047800f5ff3700395dba008b05e900b1
:100550000c003200295dba008b05e900080032006a
:100560000c00e00003003a00e284440032a0b40032
:10057000f5ff370019ddba008b05e900faff3a00f4
:100580008904e800e184440032a0b40000000600c1
:10059000801f78003400f80000002000a0018800cf
:1005a0000000fa00304080000000e8003040880081
:1005b0008440a9000080fa003400f9004f00780060
:1005c00000400600801f78003400f8000000200082
:1005d000a00188000000fa00204080000000e80030
:1005e0002040880084c0a9000080fa003400f9008f
:1005f0004f007800004006003600f800809fbe00e3
:10060000829fbe00849fbe00869fbe000000fa004d
:1006100000902000d10320006b0107008660a90034
:100620005116800000002100008060000000e00002
:1006300002003200ed00070006003700511680006e
:1006400000002200008060000000e0000100320095
:10065000e60007000080fa004f03be004f02be0014
:100660004f01be004f00be003600f90000400600fa
:0c0670000040da000000fe000000050061
:020000040000fa
:10067c000000fa00c002a900e004a900c022a900f1
:10068c00e024a900c802a900c822a900c842a800f9
:10069c00e244a800c042a900e044a900e064a8001c
:1006ac00c8e2a900c902a900c922a900c0c2a900b8
:1006bc00c982a800e384a900c9a2a800e3a4a900e8
:1006cc00c9c2a900e3c4a900c9e2a900e3e4a900d6
:1006dc000080fa00000006000000fa0005e1a80006
:1006ec000421a900210880000003200001007000f3
:1006fc002008880090d02300100888000021ef000b
:10070c0021058000f0ff28000080600000e0a000c0
:10071c00200588009460a8008460a9000080fa007d
:10072c00000006000000fa0011e1a8001021a90049
:10073c008108800000032000010070008008880000
:10074c00803e2000600888000621ef000080fa003f
:10075c00000006000000fa0062a0a8006ea0a9002c
:10076c0061058000f0ff28008080600000002600fa
:10077c0001007000600588009660a8008660a900e2
:10078c000080fa00000006000000fa00111a800038
:10079c00f0ff230000806000101a880043a3a9001a
:1007ac0030c0b30044e3b700011a8000f0f02f0012
:1007bc00808060000007200001007000001a880093
:1007cc004043a800211a8000f00f2e0080806000aa
:1007dc000030200001007000201a88004343a8005c
:1007ec0051c3a8004143a800011a8000f0cf2f008c
:1007fc0000806000001a88004363a800111a800072
:10080c0030f82f00008060000030a000101a880023
:10081c0041e3a8000080fa00000006000000fa0086
:10082c009021ef009221ef0060f92000b00c8800bd
:10083c0080a92300a00c8800810c800000c021003e
:10084c0001007000800c8800900c8000f001b30057
:10085c00900c880092e1a900810c800080ff2f0091
:10086c00008060006000b300800c88009440a800f9
:10087c00cde2a9000080fa00000006000000fa009a
:10088c009a21ef009c21ef0060f92000000d8800f8
:10089c0080a92300f00c8800d10c800000c021003e
:1008ac0001007000d00c8800e00c8000f001b30057
:1008bc00e00c88009ce1a900d10c800080ff2f0087
:1008cc00008060006000b300d00c880094c0a800c9
:1008dc0084c0a900c402a900c422a8000080fa00a8
:1008ec00000006000000fa00a421ef00a621ef0092
:1008fc0000232000500d8800f0702200400d88006d
:10090c00210d8000f03f2e0000806000200d88003b
:10091c00300d8000f001b300300d8800a6e1a90075
:10092c00210d800080ff2f00008060006000b3006c
:10093c00200d88000080fa00000006000000fa007c
:10094c00cde2a80010c0b30002e8b700cd02a900a8
:10095c00cda2a90002c8bf000004e000fdff3a00d0
:10096c000080fa00000006000000fa000628ef00e4
:10097c0010c0b30002e8b700cd02a900cda2a800b8
:10098c00000000003140800050408000808f5000fb
:10099c00fcff35000080fa00000006000000fa00a1
:1009ac000628ef00cd02a800cda2a8000000000090
:1009bc003140800060408000808f5000fcff35008b
:1009cc000080fa00000006000000fa00cde2a8004a
:1009dc00cd02a800cd22a8000080fa00000006007d
:1009ec000000fa000268ef00cde2a9000080fa00d6
:1009fc00000006000000fa000100370000000000b3
:100a0c0021408000401f2000808f5000fbff3400ed
:100a1c00cda2a900faff37000000fa00eaff070098
:100a2c00000000004040800080007800e01880004a
:100a3c00808f5000fbff3e00e9ff0700bfff07005f
:100a4c000080fa00000006000200fa00004f780057
:100a5c0020c6b3009e40780080cf500006003a00bc
:100a6c0000192000500d8800004080000000e800b4
:100a7c00004088000c00370070c7b3009e4078001f
:100a8c0080cf500006003a00c02b2000500d88008b
:100a9c00004080000000e8000040880002003700a1
:100aac0000232000500d88000080fa000000060092
:100abc000200fa00e118800040e72000808f50000f
:100acc000300360070c7b300004f780009003700f0
:100adc00e1188000406a2000808f5000030036002f
:100aec0020c6b300004f780002003700e0c6b30008
:100afc00004f78001e4078000080fa0000000600cd
:100b0c000200fa00dafe0700f3fe070005ff0700fb
:100b1c0010ff07001cff070040ff070057ff0700ee
:100b2c0070ff07000000eb00000f78001e0078003b
:100b3c00e10f500009003200e10f500005003900b0
:100b4c00e30f500014003200e40f50001900320083
:100b5c00f6ff3700b0ff0700ffff3700c442a800c4
:100b6c0006003700cdc2a800d1ff0700b6ff070072
:100b7c00cdc2a90000232000500d88000040800049
:100b8c00e30f5000f7ff3400c442a90040002000de
:100b9c00000f78000800370073ff07007fff070085
:100bac0066ff070093ff070040002000000f78004d
:0c0bbc0001003700ffff3700dcff3700ae
:020000040000fa
:100bc800f03fb1000180b10006003500ee030900d6
:100bd80000000000403fb1000180b100fbff3d0074
:100be8001000b000203fb00002003500008009006e
:080bf8000000000000000600ef
:020000040000fa
:100c000000080000080000000000000008080000c4
:100c10000600000002000000b80b120002540100a0
:040c200000000000d0
:020000040000fa
:0200000401f009
:04000c00f8ff0000f9
:020000040000fa
:0200000401f009
:04001c00fdff0000e4
:00000001FF
