:020000040000fa
:080000000002040000000000f2
:020000040000fa
:0400080026030000cb
:020000040000fa
:04000c0026030000c7
:020000040000fa
:0400100026030000c3
:020000040000fa
:0400140026030000bf
:020000040000fa
:0400180026030000bb
:020000040000fa
:04001c0026030000b7
:020000040000fa
:0400200026030000b3
:020000040000fa
:0400240026030000af
:020000040000fa
:0400280026030000ab
:020000040000fa
:04002c0026030000a7
:020000040000fa
:04003000c802000002
:020000040000fa
:04003400260300009f
:020000040000fa
:04003800260300009b
:020000040000fa
:04003c002603000097
:020000040000fa
:040040002603000093
:020000040000fa
:04004400260300008f
:020000040000fa
:04004800260300008b
:020000040000fa
:04004c002603000087
:020000040000fa
:040050002603000083
:020000040000fa
:04005400260300007f
:020000040000fa
:04005800260300007b
:020000040000fa
:04005c002603000077
:020000040000fa
:040060002603000073
:020000040000fa
:04006400260300006f
:020000040000fa
:04006800260300006b
:020000040000fa
:04006c002603000067
:020000040000fa
:040070002603000063
:020000040000fa
:04007400ec0200009a
:020000040000fa
:04007800260300005b
:020000040000fa
:04007c002603000057
:020000040000fa
:040080002603000053
:020000040000fa
:04008400260300004f
:020000040000fa
:04008800260300004b
:020000040000fa
:04008c002603000047
:020000040000fa
:040090002603000043
:020000040000fa
:04009400260300003f
:020000040000fa
:04009800260300003b
:020000040000fa
:04009c002603000037
:020000040000fa
:0400a0002603000033
:020000040000fa
:0400a400260300002f
:020000040000fa
:0400a800260300002b
:020000040000fa
:0400ac002603000027
:020000040000fa
:0400b0002603000023
:020000040000fa
:0400b400260300001f
:020000040000fa
:0400b800260300001b
:020000040000fa
:0400bc002603000017
:020000040000fa
:0400c0002603000013
:020000040000fa
:0400c400260300000f
:020000040000fa
:0400c800260300000b
:020000040000fa
:0400cc002603000007
:020000040000fa
:0400d0002603000003
:020000040000fa
:0400d40026030000ff
:020000040000fa
:0400d80026030000fb
:020000040000fa
:0400dc0026030000f7
:020000040000fa
:0400e00026030000f3
:020000040000fa
:0400e40026030000ef
:020000040000fa
:0400e80026030000eb
:020000040000fa
:0400ec0026030000e7
:020000040000fa
:0400f00026030000e3
:020000040000fa
:0400f40026030000df
:020000040000fa
:0400f80026030000db
:020000040000fa
:0400fc0026030000d7
:020000040000fa
:0401000026030000d2
:020000040000fa
:0401040026030000ce
:020000040000fa
:0401080026030000ca
:020000040000fa
:04010c0026030000c6
:020000040000fa
:0401100026030000c2
:020000040000fa
:0401140026030000be
:020000040000fa
:0401180026030000ba
:020000040000fa
:04011c0026030000b6
:020000040000fa
:0401200026030000b2
:020000040000fa
:0401240026030000ae
:020000040000fa
:0401280026030000aa
:020000040000fa
:04012c0026030000a6
:020000040000fa
:0401300026030000a2
:020000040000fa
:04013400260300009e
:020000040000fa
:04013800260300009a
:020000040000fa
:04013c002603000096
:020000040000fa
:040140002603000092
:020000040000fa
:04014400260300008e
:020000040000fa
:04014800260300008a
:020000040000fa
:04014c002603000086
:020000040000fa
:040150002603000082
:020000040000fa
:04015400260300007e
:020000040000fa
:04015800260300007a
:020000040000fa
:04015c002603000076
:020000040000fa
:040160002603000072
:020000040000fa
:04016400260300006e
:020000040000fa
:04016800260300006a
:020000040000fa
:0402080026030000c9
:020000040000fa
:04020c0026030000c5
:020000040000fa
:0402100026030000c1
:020000040000fa
:0402140026030000bd
:020000040000fa
:0402180026030000b9
:020000040000fa
:04021c0026030000b5
:020000040000fa
:0402200026030000b1
:020000040000fa
:0402240026030000ad
:020000040000fa
:0402280026030000a9
:020000040000fa
:04022c0026030000a5
:020000040000fa
:0402300026030000a1
:020000040000fa
:04023400260300009d
:020000040000fa
:040238002603000099
:020000040000fa
:04023c002603000095
:020000040000fa
:040240002603000091
:020000040000fa
:04024400260300008d
:020000040000fa
:040248002603000089
:020000040000fa
:04024c002603000085
:020000040000fa
:040250002603000081
:020000040000fa
:04025400260300007d
:020000040000fa
:040258002603000079
:020000040000fa
:04025c002603000075
:020000040000fa
:040260002603000071
:020000040000fa
:04026400260300006d
:020000040000fa
:040268002603000069
:020000040000fa
:04026c002603000065
:020000040000fa
:040270002603000061
:020000040000fa
:04027400260300005d
:020000040000fa
:040278002603000059
:020000040000fa
:04027c002603000055
:020000040000fa
:040280002603000051
:020000040000fa
:04028400260300004d
:020000040000fa
:040288002603000049
:020000040000fa
:04028c002603000045
:020000040000fa
:040290002603000041
:020000040000fa
:04029400260300003d
:020000040000fa
:040298002603000039
:020000040000fa
:04029c002603000035
:020000040000fa
:0402a0002603000031
:020000040000fa
:0402a400260300002d
:020000040000fa
:0402a8002603000029
:020000040000fa
:0402ac002603000025
:020000040000fa
:0402b0002603000021
:020000040000fa
:0402b400260300001d
:020000040000fa
:0402b8002603000019
:020000040000fa
:0402bc002603000015
:020000040000fa
:0402c0002603000011
:020000040000fa
:0402c400260300000d
:020000040000fa
:0402c8002603000009
:020000040000fa
:0402cc002603000005
:020000040000fa
:0402d0002603000001
:020000040000fa
:0402d40026030000fd
:020000040000fa
:0402d80026030000f9
:020000040000fa
:0402dc0026030000f5
:020000040000fa
:0402e00026030000f1
:020000040000fa
:0402e40026030000ed
:020000040000fa
:0402e80026030000e9
:020000040000fa
:0402ec0026030000e5
:020000040000fa
:0402f00026030000e1
:020000040000fa
:0402f40026030000dd
:020000040000fa
:0402f80026030000d9
:020000040000fa
:0402fc0026030000d5
:020000040000fa
:0403000026030000d0
:020000040000fa
:0403040026030000cc
:020000040000fa
:0403080026030000c8
:020000040000fa
:04030c0026030000c4
:020000040000fa
:0403100026030000c0
:020000040000fa
:0403140026030000bc
:020000040000fa
:0403180026030000b8
:020000040000fa
:04031c0026030000b4
:020000040000fa
:0403200026030000b0
:020000040000fa
:0403240026030000ac
:020000040000fa
:0403280026030000a8
:020000040000fa
:04032c0026030000a4
:020000040000fa
:0403300026030000a0
:020000040000fa
:04033400260300009c
:020000040000fa
:040338002603000098
:020000040000fa
:04033c002603000094
:020000040000fa
:040340002603000090
:020000040000fa
:04034400260300008c
:020000040000fa
:040348002603000088
:020000040000fa
:04034c002603000084
:020000040000fa
:040350002603000080
:020000040000fa
:04035400260300007c
:020000040000fa
:040358002603000078
:020000040000fa
:04035c002603000074
:020000040000fa
:040360002603000070
:020000040000fa
:04036400260300006c
:020000040000fa
:040368002603000068
:020000040000fa
:100400008f8020000eff20000e01880000000000f9
:10041000000020000000e000020032000001200087
:1004200020028800140007008a0007000000e00096
:1004300003003a00804b200001002000020037003a
:100440000000200001002000810f70000100320038
:1004500014000700000020000000e000020032004d
:100460000000020000000000ae04020000000000d6
:100470000040da000000fe004440a9000000200017
:100480000000e0000300320000002000a00188000e
:100490004440a800000006008a1f78008b1f7800e7
:1004a0000000060091018800800478000000eb0045
:1004b0001a003700e284440032a0b4009905ba0063
:1004c000e284440032a0b4009906ba00e2844400f9
:1004d00032a0b4000006eb00476fde00fd07b2005b
:1004e000636ce10003003a00ebff07000000eb0043
:1004f0000a003700606ce10004003a00005deb0088
:100500008b05e900fdff3e00040037006168e10053
:10051000010032000086eb000b00070019c7ba008b
:100520001905ba000e04e00003003a000a00e000da
:10053000e0ff3a0000000600fe07b2009e018800be
:100540008a047800f5ff3700395dba008b05e900b1
:100550000c003200295dba008b05e900080032006a
:100560000c00e00003003a00e284440032a0b40032
:10057000f5ff370019ddba008b05e900faff3a00f4
:100580008904e800e184440032a0b40000000600c1
:10059000809fbe003400f80000002000a001880009
:1005a0000000fa00204080000000e80020408800a1
:1005b0002140800080252000808f50000100340001
:1005c0000428ef008440a9000080fa003400f900fc
:1005d0004f00be00004006003600f800809fbe00bd
:1005e000829fbe00849fbe00869fbe000000fa006e
:1005f0008660a90051168000000021000080600084
:100600000000e00003003200cce2a800c1000700b7
:1006100007003700511680000000220000806000b3
:100620000000e00002003200cce2a900b90007009f
:100630000080fa004f03be004f02be004f01be0013
:100640004f00be003600f900004006000040da000e
:080650000000fe00000005009f
:020000040000fa
:100658000000fa0011e1a8001021a900810880001b
:10066800f0fc2f00008060000040a0008008880097
:10067800803e2000600888000621ef000080fa0014
:10068800000006000000fa0005e1a8000421a90006
:100698002108800000032000010070002008880065
:1006a80090d02300100888000021ef002105800069
:1006b800f0ff28000080600000e0a000200588000e
:1006c8009460a8008460a9000080fa000000060079
:1006d8000000fa0063c0a8006fc0a900610580008f
:1006e800f0ff2800808060000000260001007000f4
:1006f800600588009660a8008660a9000080fa005e
:10070800000006000000fa00c002a900e004a900e9
:10071800c022a900e024a900c802a900c822a90093
:10072800e244a800c042a900e044a900c062a800b1
:10073800e064a800c8e2a900c902a900c922a9006a
:10074800c0c2a900c982a800e384a900c9a2a80060
:10075800e3a4a900c9c2a900e3c4a900c9e2a90089
:10076800e3e4a9000080fa00000006000000fa0097
:10077800111a8000f0ff230000806000101a880022
:1007880043a3a90030c0b30044e3b700011a8000b6
:10079800f0f02f008080600000072000010070004a
:1007a800001a88004043a800211a8000f00f2e008c
:1007b800808060000030200001007000201a88004e
:1007c8004343a80051c3a8005083a8004143a80090
:1007d800011a8000f0cf2f0000806000001a880006
:1007e8004363a800111a800030f82f0000806000d1
:1007f8000020a000101a880041e3a8000080fa0039
:10080800000006000000fa00a421ef00a621ef0076
:1008180000232000500d8800f0702200400d880051
:10082800210d8000f03f2e0000806000200d880020
:10083800300d8000f001b300300d8800a6e1a9005a
:10084800210d800080ff2f00008060006000b30051
:10085800200d88000080fa00000006000000fa0061
:100868009021ef009221ef0060f92000b00c880081
:1008780080a92300a00c8800810c800000c0210002
:1008880001007000800c8800900c8000f001b3001b
:10089800900c880092e1a900810c800080ff2f0055
:1008a800008060006000b300800c8800cde2a900e1
:1008b8000080fa00000006000000fa0060f920003d
:1008c800b00c880010c0b30002e8b700cde2a80061
:1008d800cd02a900cd22a80002c8bf000004e00094
:1008e800fdff3a000080fa00000006000000fa0050
:1008f80010c0b30002e8b700cde2a800cd02a800fe
:10090800cd22a8000080fa00000006000000fa00ce
:100918000268ef009621ef00cde2a9000080fa00fe
:10092800000006000000fa00cde2a800803e20008a
:10093800b00c880001003700000000002140800052
:10094800401f2000808f5000fbff3400cde2a9003b
:10095800faff37000000fa006aff0700bfff070030
:08096800f0ff0700ffff37005c
:020000040000fa
:10097000000800000600000000000000060800005b
:100980000200000002000000c40900000000000096
:020000040000fa
:0200000401f009
:04000c00f8ff0000f9
:020000040000fa
:0200000401f009
:04001c00fdff0000e4
:00000001FF
