:020000040000fa
:080000000002040000000000f2
:020000040000fa
:040008005c03000095
:020000040000fa
:04000c005c03000091
:020000040000fa
:040010005c0300008d
:020000040000fa
:040014005c03000089
:020000040000fa
:040018005c03000085
:020000040000fa
:04001c005c03000081
:020000040000fa
:040020005c0300007d
:020000040000fa
:040024005c03000079
:020000040000fa
:040028005c03000075
:020000040000fa
:04002c005c03000071
:020000040000fa
:040030005c0300006d
:020000040000fa
:040034005c03000069
:020000040000fa
:040038005c03000065
:020000040000fa
:04003c005c03000061
:020000040000fa
:040040005c0300005d
:020000040000fa
:040044005c03000059
:020000040000fa
:040048005c03000055
:020000040000fa
:04004c005c03000051
:020000040000fa
:040050005c0300004d
:020000040000fa
:040054005c03000049
:020000040000fa
:040058005c03000045
:020000040000fa
:04005c005c03000041
:020000040000fa
:040060005c0300003d
:020000040000fa
:040064005c03000039
:020000040000fa
:040068005c03000035
:020000040000fa
:04006c005c03000031
:020000040000fa
:040070005c0300002d
:020000040000fa
:04007400c8020000be
:020000040000fa
:040078005c03000025
:020000040000fa
:04007c005c03000021
:020000040000fa
:040080005c0300001d
:020000040000fa
:040084005c03000019
:020000040000fa
:040088005c03000015
:020000040000fa
:04008c005c03000011
:020000040000fa
:040090005c0300000d
:020000040000fa
:040094005c03000009
:020000040000fa
:040098005c03000005
:020000040000fa
:04009c005c03000001
:020000040000fa
:0400a0005c030000fd
:020000040000fa
:0400a4005c030000f9
:020000040000fa
:0400a8005c030000f5
:020000040000fa
:0400ac005c030000f1
:020000040000fa
:0400b0005c030000ed
:020000040000fa
:0400b4005c030000e9
:020000040000fa
:0400b8005c030000e5
:020000040000fa
:0400bc005c030000e1
:020000040000fa
:0400c0005c030000dd
:020000040000fa
:0400c4005c030000d9
:020000040000fa
:0400c8005c030000d5
:020000040000fa
:0400cc005c030000d1
:020000040000fa
:0400d0005c030000cd
:020000040000fa
:0400d4005c030000c9
:020000040000fa
:0400d8005c030000c5
:020000040000fa
:0400dc005c030000c1
:020000040000fa
:0400e0005c030000bd
:020000040000fa
:0400e4005c030000b9
:020000040000fa
:0400e8005c030000b5
:020000040000fa
:0400ec005c030000b1
:020000040000fa
:0400f0005c030000ad
:020000040000fa
:0400f4005c030000a9
:020000040000fa
:0400f8005c030000a5
:020000040000fa
:0400fc005c030000a1
:020000040000fa
:040100005c0300009c
:020000040000fa
:040104005c03000098
:020000040000fa
:040108005c03000094
:020000040000fa
:04010c005c03000090
:020000040000fa
:040110005c0300008c
:020000040000fa
:040114005c03000088
:020000040000fa
:040118005c03000084
:020000040000fa
:04011c005c03000080
:020000040000fa
:040120005c0300007c
:020000040000fa
:040124005c03000078
:020000040000fa
:040128005c03000074
:020000040000fa
:04012c005c03000070
:020000040000fa
:040130005c0300006c
:020000040000fa
:040134005c03000068
:020000040000fa
:040138005c03000064
:020000040000fa
:04013c005c03000060
:020000040000fa
:040140005c0300005c
:020000040000fa
:040144005c03000058
:020000040000fa
:040148005c03000054
:020000040000fa
:04014c005c03000050
:020000040000fa
:040150005c0300004c
:020000040000fa
:040154005c03000048
:020000040000fa
:040158005c03000044
:020000040000fa
:04015c005c03000040
:020000040000fa
:040160005c0300003c
:020000040000fa
:040164005c03000038
:020000040000fa
:040168005c03000034
:020000040000fa
:040208005c03000093
:020000040000fa
:04020c005c0300008f
:020000040000fa
:040210005c0300008b
:020000040000fa
:040214005c03000087
:020000040000fa
:040218005c03000083
:020000040000fa
:04021c005c0300007f
:020000040000fa
:040220005c0300007b
:020000040000fa
:040224005c03000077
:020000040000fa
:040228005c03000073
:020000040000fa
:04022c005c0300006f
:020000040000fa
:040230005c0300006b
:020000040000fa
:040234005c03000067
:020000040000fa
:040238005c03000063
:020000040000fa
:04023c005c0300005f
:020000040000fa
:040240005c0300005b
:020000040000fa
:040244005c03000057
:020000040000fa
:040248005c03000053
:020000040000fa
:04024c005c0300004f
:020000040000fa
:040250005c0300004b
:020000040000fa
:040254005c03000047
:020000040000fa
:040258005c03000043
:020000040000fa
:04025c005c0300003f
:020000040000fa
:040260005c0300003b
:020000040000fa
:040264005c03000037
:020000040000fa
:040268005c03000033
:020000040000fa
:04026c005c0300002f
:020000040000fa
:040270005c0300002b
:020000040000fa
:040274005c03000027
:020000040000fa
:040278005c03000023
:020000040000fa
:04027c005c0300001f
:020000040000fa
:040280005c0300001b
:020000040000fa
:040284005c03000017
:020000040000fa
:040288005c03000013
:020000040000fa
:04028c005c0300000f
:020000040000fa
:040290005c0300000b
:020000040000fa
:040294005c03000007
:020000040000fa
:040298005c03000003
:020000040000fa
:04029c005c030000ff
:020000040000fa
:0402a0005c030000fb
:020000040000fa
:0402a4005c030000f7
:020000040000fa
:0402a8005c030000f3
:020000040000fa
:0402ac005c030000ef
:020000040000fa
:0402b0005c030000eb
:020000040000fa
:0402b4005c030000e7
:020000040000fa
:0402b8005c030000e3
:020000040000fa
:0402bc005c030000df
:020000040000fa
:0402c0005c030000db
:020000040000fa
:0402c4005c030000d7
:020000040000fa
:0402c8005c030000d3
:020000040000fa
:0402cc005c030000cf
:020000040000fa
:0402d0005c030000cb
:020000040000fa
:0402d4005c030000c7
:020000040000fa
:0402d8005c030000c3
:020000040000fa
:0402dc005c030000bf
:020000040000fa
:0402e0005c030000bb
:020000040000fa
:0402e4005c030000b7
:020000040000fa
:0402e8005c030000b3
:020000040000fa
:0402ec005c030000af
:020000040000fa
:0402f0005c030000ab
:020000040000fa
:0402f4005c030000a7
:020000040000fa
:0402f8005c030000a3
:020000040000fa
:0402fc005c0300009f
:020000040000fa
:040300005c0300009a
:020000040000fa
:040304005c03000096
:020000040000fa
:040308005c03000092
:020000040000fa
:04030c005c0300008e
:020000040000fa
:040310005c0300008a
:020000040000fa
:040314005c03000086
:020000040000fa
:040318005c03000082
:020000040000fa
:04031c005c0300007e
:020000040000fa
:040320005c0300007a
:020000040000fa
:040324005c03000076
:020000040000fa
:040328005c03000072
:020000040000fa
:04032c005c0300006e
:020000040000fa
:040330005c0300006a
:020000040000fa
:040334005c03000066
:020000040000fa
:040338005c03000062
:020000040000fa
:04033c005c0300005e
:020000040000fa
:040340005c0300005a
:020000040000fa
:040344005c03000056
:020000040000fa
:040348005c03000052
:020000040000fa
:04034c005c0300004e
:020000040000fa
:040350005c0300004a
:020000040000fa
:040354005c03000046
:020000040000fa
:040358005c03000042
:020000040000fa
:04035c005c0300003e
:020000040000fa
:040360005c0300003a
:020000040000fa
:040364005c03000036
:020000040000fa
:040368005c03000032
:020000040000fa
:100400008f8020000eff20000e01880000000000f9
:10041000000020000000e000020032000001200087
:100420002002880014000700a50007000000e0007b
:1004300003003a00a0602000010020000200370005
:100440000000200001002000810f70000100320038
:1004500014000700000020000000e000020032004d
:100460000000020000000000a005020000000000e3
:100470000040da000000fe004440a9000000200017
:100480000000e0000300320000002000a00188000e
:100490004440a800000006008a1f78008b1f7800e7
:1004a0000000060091018800800478000000eb0045
:1004b0001a003700e284440032a0b4009905ba0063
:1004c000e284440032a0b4009906ba00e2844400f9
:1004d00032a0b4000006eb00476fde00fd07b2005b
:1004e000636ce10003003a00ebff07000000eb0043
:1004f0000a003700606ce10004003a00005deb0088
:100500008b05e900fdff3e00040037006168e10053
:10051000010032000086eb000b00070019c7ba008b
:100520001905ba000e04e00003003a000a00e000da
:10053000e0ff3a0000000600fe07b2009e018800be
:100540008a047800f5ff3700395dba008b05e900b1
:100550000c003200295dba008b05e900080032006a
:100560000c00e00003003a00e284440032a0b40032
:10057000f5ff370019ddba008b05e900faff3a00f4
:100580008904e800e184440032a0b40000000600c1
:100590003600f800809fbe00829fbe00849fbe0090
:1005a000869fbe00881f78000000fa008660a900c0
:1005b000101680004200de00614060008080fb0079
:1005c00020408000808f500018003a0000408000da
:1005d0001140800018c0b300020020004333240003
:1005e000980007000000e00001003c000044eb0020
:1005f0000804e00005003200000020004133240020
:1006000000408800114088001e0037000040800034
:10061000114080000200200003f423002a0007009c
:10062000004088001140880016003700004080001c
:100630001140800018c0b300020020000304240011
:100640007e0007000000e000010035000044eb00e0
:100650000804e000040032006000b8000040880098
:1006600011408800070037000040800011408000e2
:100670000200200003f4230012000700004088005d
:1006800011408800501680004200de00614060008a
:100690000080fb00204088000080fa004f047800b2
:1006a0004f03be004f02be004f01be004f00be0010
:1006b0003600f900004006000040da000000fe00ad
:1006c0000000050003f0a200889fbe008a9fbe00c4
:1006d0008c1f7800b3000700ba0033006450e100bb
:1006e0004f0032006420e1005200320003826c00af
:1006f00007003b000905d0000306d000820f54001c
:100700000c065d0002003900020032008901780009
:10071000030678008582550004003d000003fd00bb
:100720008103fd008502ea008b854200840f720080
:1007300002003b0060001000e08018006011b8006b
:100740000005eb007a28e1000a0039000600780075
:10075000c75ddd00f707b200878075002d00370008
:10076000828171000a017800610560008180d100fa
:100770000080d3008502e900f9ff3b000604400039
:100780008784480002003b0060041400e0841c00e1
:100790000988a300070032008a81710082817100fc
:1007a000610164008904d1000884d3008b05e8004e
:1007b000170037000978a30013003a000b00e0008f
:1007c000130034008b05e9000804440089844c00c0
:1007d0000a4474000978a3000d003a000b00e00001
:1007e000070034008b05e9000804440089844c00ac
:1007f00001003a000b0020000978a300f7ff320047
:100800000001eb0002003700828171000a017800cc
:10081000290007000cf0a70001f0a00072003700cb
:100820006420e10002003a00838f6c007200330004
:100830000801be000200be006b003700140020005b
:10084000a4003700f4ff2f00a20037000001be0013
:100850003f0007000470a70003f0a10003f8a30005
:1008600013003a006509b10010003200090035009c
:100870006928e100020035000100280000000500a1
:1008800000004000818048008502e900fcff3a003a
:1008900000000600f88f4200050035008100d100fd
:1008a0000080d3008502e800fcff3a00000006004b
:1008b0008000eb00000005008100200061805500f1
:1008c0000b003d000b00200061fe2f000100e10045
:1008d0001d00340082817100610164008904d1002f
:1008e0000884d3000000e800faff3a0071002000fd
:1008f0006100640003007000020060000900320023
:1009000061044400e0844c000988a5000500320021
:100910008b05e8006808e10002003a008904d10074
:100920000884d300f20f20000258e10005003d00ca
:10093000c75ddd00f907b200898075000800780006
:10094000000006000bf827008b007800000005006f
:10095000c70ade00f107b200f50fb200080032004e
:10096000e1cf4200020032000170a0002400050027
:10097000810f7000010032000408050044000500ea
:10098000810f700002003a00140005008502e900a2
:100990000000400081c04800fcff3b000170a00047
:1009a000240005000004be00e9ff07000003be00ac
:1009b0000405be000200be00e5ff0700844f75007d
:1009c000000006000200be006450e1000500360091
:1009d0006420e100020036000968a30001003a002b
:1009e0000800be000160a0004f0678004f05be0061
:1009f0004f04be0000000600f0ff2f00f1ff2700ab
:100a0000f9ff3700889fbe008a9fbe008c1f7800c8
:100a1000e4ff0700ebff330003866c006450e10045
:100a2000240032006420e100270032006150e10020
:100a3000220032006120e100210032008b8542005b
:100a4000eb07b1000134b800003ab80008044200d6
:100a500089844a00013ab8000030b800888040001c
:100a600009014a0004003300000040008180480072
:100a7000020149008b05e900c909dd00830170000e
:100a80000100320013002000c814de004814dd000d
:100a90004709de001200b200c808de0008847000ba
:100aa00085ff070001f0a1000cf0a70001f0a000f5
:100ab000cdff37006120e100cfff32000801be000a
:100ac0000200be00f7ff37006150e100fcff3a0072
:100ad000c9ff3700889fbe008a9fbe00841f780030
:100ae000b0ff07004f00780011003300f0ff2f0027
:100af000838f6c0006003b00040565000a00a70018
:100b00000800370009f0a600100020000800370098
:100b1000820f5400838f5c00030039001000200016
:100b200001003e000000200009f0a7000000ea00dc
:100b30004f05be004f04be000000e00000000600ac
:020000040000fa
:100b40000000fa00501680004200de0061406000a4
:100b50000080fb0020408800101680004200de006c
:100b6000614060000080fb0030408800c842a8005f
:100b7000c042a800e244a900e044a9009021ef008f
:100b80009221ef00007d2000b00c8800f0f92000d9
:100b9000a00c8800810c800000c0210001007000c2
:100ba000800c8800900c8000f001b300900c88004d
:100bb00092e1a900810c800080ff2f00008060007e
:100bc0006000b300800c880062c0a8006ec0a9005d
:100bd00061058000f0ff2800808060000000250093
:100be00001007000600588009660a8008660a9007a
:100bf000004080001140800002002000031b240000
:100c000080ff070011ff070000007800b00c88008b
:040c1000f7ff3700b3
:020000040000fa
:100c140000080000080000000000000000000000c0
:020000040000fa
:0200000401f009
:04000c00f8ff0000f9
:00000001FF
