:020000040000fa
:080000000002040000000000f2
:020000040000fa
:04000800c80200002a
:020000040000fa
:04000c00c802000026
:020000040000fa
:04001000c802000022
:020000040000fa
:04001400c80200001e
:020000040000fa
:04001800c80200001a
:020000040000fa
:04001c00c802000016
:020000040000fa
:04002000c802000012
:020000040000fa
:04002400c80200000e
:020000040000fa
:04002800c80200000a
:020000040000fa
:04002c00c802000006
:020000040000fa
:04003000c802000002
:020000040000fa
:04003400c8020000fe
:020000040000fa
:04003800c8020000fa
:020000040000fa
:04003c00c8020000f6
:020000040000fa
:04004000c8020000f2
:020000040000fa
:04004400c8020000ee
:020000040000fa
:04004800c8020000ea
:020000040000fa
:04004c00c8020000e6
:020000040000fa
:04005000c8020000e2
:020000040000fa
:04005400c8020000de
:020000040000fa
:04005800c8020000da
:020000040000fa
:04005c00c8020000d6
:020000040000fa
:04006000c8020000d2
:020000040000fa
:04006400c8020000ce
:020000040000fa
:04006800c8020000ca
:020000040000fa
:04006c00c8020000c6
:020000040000fa
:04007000c8020000c2
:020000040000fa
:04007400c8020000be
:020000040000fa
:04007800c8020000ba
:020000040000fa
:04007c00c8020000b6
:020000040000fa
:04008000c8020000b2
:020000040000fa
:04008400c8020000ae
:020000040000fa
:04008800c8020000aa
:020000040000fa
:04008c00c8020000a6
:020000040000fa
:04009000c8020000a2
:020000040000fa
:04009400c80200009e
:020000040000fa
:04009800c80200009a
:020000040000fa
:04009c00c802000096
:020000040000fa
:0400a000c802000092
:020000040000fa
:0400a400c80200008e
:020000040000fa
:0400a800c80200008a
:020000040000fa
:0400ac00c802000086
:020000040000fa
:0400b000c802000082
:020000040000fa
:0400b400c80200007e
:020000040000fa
:0400b800c80200007a
:020000040000fa
:0400bc00c802000076
:020000040000fa
:0400c000c802000072
:020000040000fa
:0400c400c80200006e
:020000040000fa
:0400c800c80200006a
:020000040000fa
:0400cc00c802000066
:020000040000fa
:0400d000c802000062
:020000040000fa
:0400d400c80200005e
:020000040000fa
:0400d800c80200005a
:020000040000fa
:0400dc00c802000056
:020000040000fa
:0400e000c802000052
:020000040000fa
:0400e400c80200004e
:020000040000fa
:0400e800c80200004a
:020000040000fa
:0400ec00c802000046
:020000040000fa
:0400f000c802000042
:020000040000fa
:0400f400c80200003e
:020000040000fa
:0400f800c80200003a
:020000040000fa
:0400fc00c802000036
:020000040000fa
:04010000c802000031
:020000040000fa
:04010400c80200002d
:020000040000fa
:04010800c802000029
:020000040000fa
:04010c00c802000025
:020000040000fa
:04011000c802000021
:020000040000fa
:04011400c80200001d
:020000040000fa
:04011800c802000019
:020000040000fa
:04011c00c802000015
:020000040000fa
:04012000c802000011
:020000040000fa
:04012400c80200000d
:020000040000fa
:04012800c802000009
:020000040000fa
:04012c00c802000005
:020000040000fa
:04013000c802000001
:020000040000fa
:04013400c8020000fd
:020000040000fa
:04013800c8020000f9
:020000040000fa
:04013c00c8020000f5
:020000040000fa
:04014000c8020000f1
:020000040000fa
:04014400c8020000ed
:020000040000fa
:04014800c8020000e9
:020000040000fa
:04014c00c8020000e5
:020000040000fa
:04015000c8020000e1
:020000040000fa
:04015400c8020000dd
:020000040000fa
:04015800c8020000d9
:020000040000fa
:04015c00c8020000d5
:020000040000fa
:04016000c8020000d1
:020000040000fa
:04016400c8020000cd
:020000040000fa
:04016800c8020000c9
:020000040000fa
:04020800c802000028
:020000040000fa
:04020c00c802000024
:020000040000fa
:04021000c802000020
:020000040000fa
:04021400c80200001c
:020000040000fa
:04021800c802000018
:020000040000fa
:04021c00c802000014
:020000040000fa
:04022000c802000010
:020000040000fa
:04022400c80200000c
:020000040000fa
:04022800c802000008
:020000040000fa
:04022c00c802000004
:020000040000fa
:04023000c802000000
:020000040000fa
:04023400c8020000fc
:020000040000fa
:04023800c8020000f8
:020000040000fa
:04023c00c8020000f4
:020000040000fa
:04024000c8020000f0
:020000040000fa
:04024400c8020000ec
:020000040000fa
:04024800c8020000e8
:020000040000fa
:04024c00c8020000e4
:020000040000fa
:04025000c8020000e0
:020000040000fa
:04025400c8020000dc
:020000040000fa
:04025800c8020000d8
:020000040000fa
:04025c00c8020000d4
:020000040000fa
:04026000c8020000d0
:020000040000fa
:04026400c8020000cc
:020000040000fa
:04026800c8020000c8
:020000040000fa
:04026c00c8020000c4
:020000040000fa
:04027000c8020000c0
:020000040000fa
:04027400c8020000bc
:020000040000fa
:04027800c8020000b8
:020000040000fa
:04027c00c8020000b4
:020000040000fa
:04028000c8020000b0
:020000040000fa
:04028400c8020000ac
:020000040000fa
:04028800c8020000a8
:020000040000fa
:04028c00c8020000a4
:020000040000fa
:04029000c8020000a0
:020000040000fa
:04029400c80200009c
:020000040000fa
:04029800c802000098
:020000040000fa
:04029c00c802000094
:020000040000fa
:0402a000c802000090
:020000040000fa
:0402a400c80200008c
:020000040000fa
:0402a800c802000088
:020000040000fa
:0402ac00c802000084
:020000040000fa
:0402b000c802000080
:020000040000fa
:0402b400c80200007c
:020000040000fa
:0402b800c802000078
:020000040000fa
:0402bc00c802000074
:020000040000fa
:0402c000c802000070
:020000040000fa
:0402c400c80200006c
:020000040000fa
:0402c800c802000068
:020000040000fa
:0402cc00c802000064
:020000040000fa
:0402d000c802000060
:020000040000fa
:0402d400c80200005c
:020000040000fa
:0402d800c802000058
:020000040000fa
:0402dc00c802000054
:020000040000fa
:0402e000c802000050
:020000040000fa
:0402e400c80200004c
:020000040000fa
:0402e800c802000048
:020000040000fa
:0402ec00c802000044
:020000040000fa
:0402f000c802000040
:020000040000fa
:0402f400c80200003c
:020000040000fa
:0402f800c802000038
:020000040000fa
:0402fc00c802000034
:020000040000fa
:04030000c80200002f
:020000040000fa
:04030400c80200002b
:020000040000fa
:04030800c802000027
:020000040000fa
:04030c00c802000023
:020000040000fa
:04031000c80200001f
:020000040000fa
:04031400c80200001b
:020000040000fa
:04031800c802000017
:020000040000fa
:04031c00c802000013
:020000040000fa
:04032000c80200000f
:020000040000fa
:04032400c80200000b
:020000040000fa
:04032800c802000007
:020000040000fa
:04032c00c802000003
:020000040000fa
:04033000c8020000ff
:020000040000fa
:04033400c8020000fb
:020000040000fa
:04033800c8020000f7
:020000040000fa
:04033c00c8020000f3
:020000040000fa
:04034000c8020000ef
:020000040000fa
:04034400c8020000eb
:020000040000fa
:04034800c8020000e7
:020000040000fa
:04034c00c8020000e3
:020000040000fa
:04035000c8020000df
:020000040000fa
:04035400c8020000db
:020000040000fa
:04035800c8020000d7
:020000040000fa
:04035c00c8020000d3
:020000040000fa
:04036000c8020000cf
:020000040000fa
:04036400c8020000cb
:020000040000fa
:04036800c8020000c7
:020000040000fa
:100400000f8020000eff20000e0188000000000079
:10041000000020000000e000020032000001200087
:1004200020028800140007005b0007000000e000c5
:1004300003003a0000002000010020000200370005
:100440000000200001002000810f70000100320038
:1004500014000700000020000000e000020032004d
:100460000000020000000000c604020000000000be
:100470000040da000000fe004440a9000000200017
:100480000000e0000300320000002000a00188000e
:100490004440a800000006008a1f78008b1f7800e7
:1004a0000000060091018800800478000000eb0045
:1004b0001a003700e284440032a0b4009905ba0063
:1004c000e284440032a0b4009906ba00e2844400f9
:1004d00032a0b4000006eb00476fde00fd07b2005b
:1004e000636ce10003003a00ebff07000000eb0043
:1004f0000a003700606ce10004003a00005deb0088
:100500008b05e900fdff3e00040037006168e10053
:10051000010032000086eb000b00070019c7ba008b
:100520001905ba000e04e00003003a000a00e000da
:10053000e0ff3a0000000600fe07b2009e018800be
:100540008a047800f5ff3700395dba008b05e900b1
:100550000c003200295dba008b05e900080032006a
:100560000c00e00003003a00e284440032a0b40032
:10057000f5ff370019ddba008b05e900faff3a00f4
:100580008904e800e184440032a0b40000000600c1
:100590000040da000000fe00000005000001be007f
:1005a0001b0007000470a70003f0a10003f8a300dc
:1005b00013003a006509b10010003200090035004f
:1005c0006928e10002003500010028000000050054
:1005d00000004000818048008502e900fcff3a00ed
:1005e00000000600f88f4200050035008100d100b0
:1005f0000080d3008502e800fcff3a0000000600fe
:100600008000eb00000005006011b80049003700d1
:10061000c70ade00f107b200f50fb2000800320091
:10062000e1cf4200020032000170a000240005006a
:10063000810f70000100320004080500440005002d
:10064000810f700002003a00140005008502e900e5
:100650000000400081c04800fcff3b000170a0008a
:1006600024000500889fbe008a9fbe008c1f780072
:10067000850007008c00330003866c006450e100a5
:10068000240032006420e100270032006150e100c4
:10069000220032006120e100210032008b854200ff
:1006a000eb07b1000134b800003ab800080442007a
:1006b00089844a00013ab8000030b80088804000c0
:1006c00009014a0004003300000040008180480016
:1006d000020149008b05e900c909dd0083017000b2
:1006e0000100320013002000c814de004814dd00b1
:1006f0004709de001200b200c808de00088470005e
:100700003b00070001f0a1000cf0a70001f0a000e1
:100710006e0037006120e100700032000801be0069
:100720000200be00f7ff37006150e100fcff3a0015
:100730006a003700889fbe008a9fbe00008270005a
:100740000402710004827100260032000004be0021
:100750000200be006011b8006b0920009502200065
:100760000182cf000a0039000541b1000082cf00ac
:10077000070039000541b1000982cf0004003900ab
:100780000541b1000882cf00010039000541b100e8
:1007900005425200120032000a003b0082817100c3
:1007a000610164008100d1000080d3008984d300fe
:1007b0000884d3008b05e8000442e800f7ff3a0004
:1007c000070037000804440089844c0000004800fa
:1007d000818048008b05e9000442e900f9ff3a00f6
:1007e000030007004f05be004f04be0000000600d6
:1007f00081002000618055000b003d000b002000af
:1008000061fe2f000100e1001d00340082817100b3
:10081000610164008904d1000884d3000000e8006d
:10082000faff3a00710020006100640003007000cc
:10083000020060000900320061044400e0844c00c2
:100840000988a500050032008b05e8006808e10072
:1008500002003a008904d1000884d300f20f20007e
:100860000258e10005003d00c75ddd00f907b20058
:100870008980750008007800000006000bf827004a
:100880008b007800000005000004be0060ff070038
:100890000003be000405be000200be005cff0700ae
:1008a000844f7500000006000200be006450e100a5
:1008b000050036006420e100020036000968a3004c
:1008c00001003a000800be000160a0004f06780059
:1008d0004f05be004f04be0000000600f0ff2f00d1
:0808e000f1ff2700f9ff3700ca
:020000040000fa
:1008e8000000fa00c842a800e244a800c002a8001c
:1008f800e004a800111a8000f0ff230000806000c7
:10090800101a880043a3a90030c0b30044e3b7001d
:10091800011a8000f0f02f0080806000000720009e
:1009280001007000001a88004043a800211a8000c6
:10093800f00f2e00008060000080a000201a8800c0
:100948004343a8005083a8005003a8004143a800cf
:10095800011a8000f0cf2f0000806000001a880084
:100968004363a800111a800030f82f00008060004f
:100978000020a000101a880041e3a8000080fa00b7
:10098800000006000000fa009021ef009221ef001d
:100998009a21ef009c21ef00f0f92000b00c8800ac
:1009a800f0f92000a00c8800f0f92000000d880064
:1009b800f0f92000f00c8800810c800000c02100b4
:1009c80001007000800c8800900c8000f001b300da
:1009d800900c880092e1a900810c800080ff2f0014
:1009e800008060006000b300800c8800d10c80009b
:1009f80000c0210001007000d00c8800e00c8000cd
:100a0800f001b300e00c88009ce1a900d10c800043
:100a180080ff2f00008060006000b300d00c8800c9
:100a2800afff0700401880008000eb00f4fe0700cd
:100a380052272000a3f7230008ff0700d5fe070070
:100a480000007800b00c8800001880008000eb00df
:100a5800ebfe070052272000a3f72300fffe070044
:100a6800ccfe070000007800000d8800edff37007d
:020000040000fa
:0200000401f009
:04000c00f8ff0000f9
:00000001FF
