:020000040000fa
:080000000002040000000000f2
:020000040000fa
:04000800c80200002a
:020000040000fa
:04000c00c802000026
:020000040000fa
:04001000c802000022
:020000040000fa
:04001400c80200001e
:020000040000fa
:04001800c80200001a
:020000040000fa
:04001c00c802000016
:020000040000fa
:04002000c802000012
:020000040000fa
:04002400c80200000e
:020000040000fa
:04002800c80200000a
:020000040000fa
:04002c00c802000006
:020000040000fa
:04003000c802000002
:020000040000fa
:04003400c8020000fe
:020000040000fa
:04003800c8020000fa
:020000040000fa
:04003c00c8020000f6
:020000040000fa
:04004000c8020000f2
:020000040000fa
:04004400c8020000ee
:020000040000fa
:04004800c8020000ea
:020000040000fa
:04004c00c8020000e6
:020000040000fa
:04005000c8020000e2
:020000040000fa
:04005400c8020000de
:020000040000fa
:04005800c8020000da
:020000040000fa
:04005c00c8020000d6
:020000040000fa
:04006000c8020000d2
:020000040000fa
:04006400c8020000ce
:020000040000fa
:04006800c8020000ca
:020000040000fa
:04006c00c8020000c6
:020000040000fa
:04007000c8020000c2
:020000040000fa
:04007400c8020000be
:020000040000fa
:04007800c8020000ba
:020000040000fa
:04007c00c8020000b6
:020000040000fa
:04008000c8020000b2
:020000040000fa
:04008400c8020000ae
:020000040000fa
:04008800c8020000aa
:020000040000fa
:04008c00c8020000a6
:020000040000fa
:04009000c8020000a2
:020000040000fa
:04009400c80200009e
:020000040000fa
:04009800c80200009a
:020000040000fa
:04009c00c802000096
:020000040000fa
:0400a000c802000092
:020000040000fa
:0400a400c80200008e
:020000040000fa
:0400a800c80200008a
:020000040000fa
:0400ac00c802000086
:020000040000fa
:0400b000c802000082
:020000040000fa
:0400b400c80200007e
:020000040000fa
:0400b800c80200007a
:020000040000fa
:0400bc00c802000076
:020000040000fa
:0400c000c802000072
:020000040000fa
:0400c400c80200006e
:020000040000fa
:0400c800c80200006a
:020000040000fa
:0400cc00c802000066
:020000040000fa
:0400d000c802000062
:020000040000fa
:0400d400c80200005e
:020000040000fa
:0400d800c80200005a
:020000040000fa
:0400dc00c802000056
:020000040000fa
:0400e000c802000052
:020000040000fa
:0400e400c80200004e
:020000040000fa
:0400e800c80200004a
:020000040000fa
:0400ec00c802000046
:020000040000fa
:0400f000c802000042
:020000040000fa
:0400f400c80200003e
:020000040000fa
:0400f800c80200003a
:020000040000fa
:0400fc00c802000036
:020000040000fa
:04010000c802000031
:020000040000fa
:04010400c80200002d
:020000040000fa
:04010800c802000029
:020000040000fa
:04010c00c802000025
:020000040000fa
:04011000c802000021
:020000040000fa
:04011400c80200001d
:020000040000fa
:04011800c802000019
:020000040000fa
:04011c00c802000015
:020000040000fa
:04012000c802000011
:020000040000fa
:04012400c80200000d
:020000040000fa
:04012800c802000009
:020000040000fa
:04012c00c802000005
:020000040000fa
:04013000c802000001
:020000040000fa
:04013400c8020000fd
:020000040000fa
:04013800c8020000f9
:020000040000fa
:04013c00c8020000f5
:020000040000fa
:04014000c8020000f1
:020000040000fa
:04014400c8020000ed
:020000040000fa
:04014800c8020000e9
:020000040000fa
:04014c00c8020000e5
:020000040000fa
:04015000c8020000e1
:020000040000fa
:04015400c8020000dd
:020000040000fa
:04015800c8020000d9
:020000040000fa
:04015c00c8020000d5
:020000040000fa
:04016000c8020000d1
:020000040000fa
:04016400c8020000cd
:020000040000fa
:04016800c8020000c9
:020000040000fa
:04020800c802000028
:020000040000fa
:04020c00c802000024
:020000040000fa
:04021000c802000020
:020000040000fa
:04021400c80200001c
:020000040000fa
:04021800c802000018
:020000040000fa
:04021c00c802000014
:020000040000fa
:04022000c802000010
:020000040000fa
:04022400c80200000c
:020000040000fa
:04022800c802000008
:020000040000fa
:04022c00c802000004
:020000040000fa
:04023000c802000000
:020000040000fa
:04023400c8020000fc
:020000040000fa
:04023800c8020000f8
:020000040000fa
:04023c00c8020000f4
:020000040000fa
:04024000c8020000f0
:020000040000fa
:04024400c8020000ec
:020000040000fa
:04024800c8020000e8
:020000040000fa
:04024c00c8020000e4
:020000040000fa
:04025000c8020000e0
:020000040000fa
:04025400c8020000dc
:020000040000fa
:04025800c8020000d8
:020000040000fa
:04025c00c8020000d4
:020000040000fa
:04026000c8020000d0
:020000040000fa
:04026400c8020000cc
:020000040000fa
:04026800c8020000c8
:020000040000fa
:04026c00c8020000c4
:020000040000fa
:04027000c8020000c0
:020000040000fa
:04027400c8020000bc
:020000040000fa
:04027800c8020000b8
:020000040000fa
:04027c00c8020000b4
:020000040000fa
:04028000c8020000b0
:020000040000fa
:04028400c8020000ac
:020000040000fa
:04028800c8020000a8
:020000040000fa
:04028c00c8020000a4
:020000040000fa
:04029000c8020000a0
:020000040000fa
:04029400c80200009c
:020000040000fa
:04029800c802000098
:020000040000fa
:04029c00c802000094
:020000040000fa
:0402a000c802000090
:020000040000fa
:0402a400c80200008c
:020000040000fa
:0402a800c802000088
:020000040000fa
:0402ac00c802000084
:020000040000fa
:0402b000c802000080
:020000040000fa
:0402b400c80200007c
:020000040000fa
:0402b800c802000078
:020000040000fa
:0402bc00c802000074
:020000040000fa
:0402c000c802000070
:020000040000fa
:0402c400c80200006c
:020000040000fa
:0402c800c802000068
:020000040000fa
:0402cc00c802000064
:020000040000fa
:0402d000c802000060
:020000040000fa
:0402d400c80200005c
:020000040000fa
:0402d800c802000058
:020000040000fa
:0402dc00c802000054
:020000040000fa
:0402e000c802000050
:020000040000fa
:0402e400c80200004c
:020000040000fa
:0402e800c802000048
:020000040000fa
:0402ec00c802000044
:020000040000fa
:0402f000c802000040
:020000040000fa
:0402f400c80200003c
:020000040000fa
:0402f800c802000038
:020000040000fa
:0402fc00c802000034
:020000040000fa
:04030000c80200002f
:020000040000fa
:04030400c80200002b
:020000040000fa
:04030800c802000027
:020000040000fa
:04030c00c802000023
:020000040000fa
:04031000c80200001f
:020000040000fa
:04031400c80200001b
:020000040000fa
:04031800c802000017
:020000040000fa
:04031c00c802000013
:020000040000fa
:04032000c80200000f
:020000040000fa
:04032400c80200000b
:020000040000fa
:04032800c802000007
:020000040000fa
:04032c00c802000003
:020000040000fa
:04033000c8020000ff
:020000040000fa
:04033400c8020000fb
:020000040000fa
:04033800c8020000f7
:020000040000fa
:04033c00c8020000f3
:020000040000fa
:04034000c8020000ef
:020000040000fa
:04034400c8020000eb
:020000040000fa
:04034800c8020000e7
:020000040000fa
:04034c00c8020000e3
:020000040000fa
:04035000c8020000df
:020000040000fa
:04035400c8020000db
:020000040000fa
:04035800c8020000d7
:020000040000fa
:04035c00c8020000d3
:020000040000fa
:04036000c8020000cf
:020000040000fa
:04036400c8020000cb
:020000040000fa
:04036800c8020000c7
:020000040000fa
:100400000f8020000eff20000e0188000000000079
:10041000000020000000e000020032000001200087
:1004200020028800140007005b0007000000e000c5
:1004300003003a0000002000010020000200370005
:100440000000200001002000810f70000100320038
:1004500014000700000020000000e000020032004d
:100460000000020000000000f00202000000000096
:100470000040da000000fe004440a9000000200017
:100480000000e0000300320000002000a00188000e
:100490004440a800000006008a1f78008b1f7800e7
:1004a0000000060091018800800478000000eb0045
:1004b0001a003700e284440032a0b4009905ba0063
:1004c000e284440032a0b4009906ba00e2844400f9
:1004d00032a0b4000006eb00476fde00fd07b2005b
:1004e000636ce10003003a00ebff07000000eb0043
:1004f0000a003700606ce10004003a00005deb0088
:100500008b05e900fdff3e00040037006168e10053
:10051000010032000086eb000b00070019c7ba008b
:100520001905ba000e04e00003003a000a00e000da
:10053000e0ff3a0000000600fe07b2009e018800be
:100540008a047800f5ff3700395dba008b05e900b1
:100550000c003200295dba008b05e900080032006a
:100560000c00e00003003a00e284440032a0b40032
:10057000f5ff370019ddba008b05e900faff3a00f4
:100580008904e800e184440032a0b40000000600c1
:0c0590000040da000000fe000000050042
:020000040000fa
:10059c000000fa0041e2a9004342a90042c2a900ae
:1005ac004302a80042a2a80010128000c001b300b0
:1005bc001012880011128000c0ff2f000080600014
:1005cc000010a0001012880041e2a8000080fa0080
:1005dc00000006000a00fa00edff07000000eb0027
:1005ec00000f78000000eb00100798000000eb00f3
:1005fc00200798000000eb00300798000000eb008b
:10060c004007980010002000000f780042013700ce
:10061c004822ef000032200001002000a901070051
:10062c001000200010079800360137001e009000c3
:10063c009e0f500021013c009e0090000002200003
:10064c00808f5000f2003a00b00920004012880060
:10065c0000322000010020009a010700000c20004d
:10066c004012880000322000010020009501070094
:10067c0000082000401288000032200001002000f9
:10068c00900107000000eb0020079800dc00370009
:10069c002e009000610060000000e0006b003a004a
:1006ac001000200030079800630037004822ef004c
:1006bc0040002000010020008201070010002000f3
:1006cc004007980055003700ce0090003e00900087
:1006dc00808f50003f003c00ce00900000022000b4
:1006ec00808f500010003a00b009200040128800a2
:1006fc00400120000100200072010700000c2000c6
:10070c004012880040012000010020006d0107000c
:10071c00000820004012880000502300c100200077
:10072c00680107003a003700ce0090001000280046
:10073c00008060000000e00004003d000000e900c3
:10074c00e1ff2f00008070000000e800e10f500076
:10075c0010003a00f00f20004012880040012000e9
:10076c0001002000570107000008200040128800fb
:10077c004001200001002000520107000008200069
:10078c004012880040012000010020004d010700ac
:10079c001f00370000082000401288004001200094
:1007ac000100200047010700f00f200040128800d4
:1007bc004001200001002000420107000008200039
:1007cc004012880040012000010020003d0107007c
:1007dc000f00370000082000401288004001200064
:1007ec00010020003701070000082000401288009b
:1007fc004001200001002000320107000008200009
:10080c004012880040012000010020002d0107004b
:10081c004e0090000000e80040079800ce009000c9
:10082c0000022000808f5000a7ff34003e00900093
:10083c000000e80030079800be0090000002200085
:10084c00808f500099ff34006a00370010002000a0
:10085c0030079800630037004822ef00400020006a
:10086c00010020001701070010002000400798002d
:10087c0055003700ce0090003e009000808f500055
:10088c003f003c00ce00900000022000808f500002
:10089c0010003a000008200040128800400120009f
:1008ac00010020000701070000082000401288000a
:1008bc004001200001002000020107000008200078
:1008cc004012880000502300c1002000fd000700ea
:1008dc003a003700ce009000100028000080600025
:1008ec000000e00004003d000000e900e1ff2f00e3
:1008fc00008070000000e800e10f500010003a008a
:10090c00f00f200040128800400120000100200060
:10091c00ec00070000082000401288004001200075
:10092c0001002000e70007000008200040128800aa
:10093c004001200001002000e20007001f003700ea
:10094c000008200040128800400120000100200017
:10095c00dc000700f00f200040128800400120004e
:10096c0001002000d700070000082000401288007a
:10097c004001200001002000d20007000f003700ca
:10098c0000082000401288004001200001002000d7
:10099c00cc00070000082000401288004001200015
:1009ac0001002000c700070000082000401288004a
:1009bc004001200001002000c20007004e00900002
:1009cc000000e80040079800ce00900000022000d4
:1009dc00808f5000a7ff34003e0090000000e8001c
:1009ec0030079800be00900000022000808f50005d
:1009fc0099ff34002e0090000000e80020079800ba
:100a0c002e009000e50f500021ff34003a00370013
:100a1c009e00900010002800008060000000e000a4
:100a2c0004003d000000e900e1ff2f000080700091
:100a3c000000e800e10f500010003a00f00f200019
:100a4c004012880000322000010020009d000700a9
:100a5c000008200040128800003220000100200015
:100a6c009800070000082000401288000032200087
:100a7c0001002000930007001f0037000008200031
:100a8c004012880000322000010020008d00070079
:100a9c00f00f2000401288000032200001002000de
:100aac008800070000082000401288000032200057
:100abc0001002000830007000f0037000008200011
:100acc004012880000322000010020007d00070049
:100adc000008200040128800003220000100200095
:100aec007800070000082000401288000032200027
:100afc0001002000730007001e0090000000e800b9
:100b0c00100798009e00900000022000808f50007b
:100b1c00c6fe34001e0fe800000220009e00780084
:100b2c00808f5000bafe340000022000000f7800c5
:100b3c00600037004822ef00003220000100200046
:100b4c0060000700100020001007980054003700c8
:100b5c001e0090009e0f50003f003c009e00900035
:100b6c0000022000808f500010003a00b0092000d5
:100b7c0040128800003220000100200051000700c4
:100b8c00000c2000401288000032200001002000e0
:100b9c004c000700000820004012880000322000a2
:100bac0001002000470007003a0037009e0090002b
:100bbc0010002800008060000000e00004003d00f0
:100bcc000000e900e1ff2f00008070000000e80049
:100bdc00e10f500010003a00f00f20004012880086
:100bec000032200001002000360007000008200021
:100bfc004012880000322000010020003100070064
:100c0c000008200040128800003220000100200063
:100c1c002c0007001f00370000082000401288003d
:100c2c00003220000100200026000700f00f2000f9
:100c3c004012880000322000010020002100070033
:100c4c000008200040128800003220000100200023
:100c5c001c0007000f00370000082000401288001d
:100c6c0000322000010020001600070000082000c0
:100c7c004012880000322000010020001100070003
:100c8c0000082000401288000032200001002000e3
:100c9c000c0007001e0090000000e80010079800f0
:100cac009e00900000022000808f5000a8ff3400ae
:100cbc001e0fe9001e0078000000e0009dff3c00c4
:040ccc0046fe3700a9
:020000040000fa
:100cd000f03fb1000180b10006003500ee030900cd
:100ce00000000000403fb1000180b100fbff3d006b
:100cf0001000b000203fb000020035000080090065
:080d00000000000000000600e5
:020000040000fa
:0200000401f009
:04000c00f8ff0000f9
:00000001FF
